:100000000C942A000C9447000C9447000C94470071
:100010000C9447000C9447000C9447000C94470044
:100020000C9447000C9447000C9447000C94470034
:100030000C9447000C9447000C9447000C94470024
:100040000C9447000C9447000C9447000C94470014
:100050000C94470011241FBECFE5D8E0DEBFCDBF12
:1000600010E0A0E6B0E0E8E6FEE002C005900D92E8
:10007000A239B107D9F720E0A2E9B0E001C01D9292
:10008000A63AB207E1F70E9449000C9432070C949B
:100090000000CF93DF9300D000D0CDB7DEB782E071
:1000A000898381E08A8381E090E09C838B830E9436
:1000B0002306CE0101960E940201CE0101960E9404
:1000C0003401CE0101960E941F0160E472E48FE0CA
:1000D00090E00E942B06CE0101960E94340160E45C
:1000E00072E48FE090E00E942B06EBCF40E060E0EE
:1000F00083E00E94020441E061E083E00E94020488
:100100000E94B00508950E94B90508950E94BD059A
:100110000895CF93DF93EC0141E0698188810E94CB
:10012000020441E06A8188810E94020441E0698101
:1001300088810E94020441E06A8188810E94020451
:1001400040E0698188810E949D0440E06A81888145
:100150000E949D0440E06B8188810E949D0440E0E4
:100160006C8188810E949D04DF91CF9108950F9347
:100170001F93CF93DF938C01EC01C60FD71F41E093
:100180006981FC0180810E949D0440E06B81F8013F
:1001900080810E949D04DF91CF911F910F9108955E
:1001A0000F931F93CF93DF938C01EC01C60FD71FE2
:1001B00040E06981FC0180810E949D0441E06B81E7
:1001C000F80180810E949D04DF91CF911F910F91D2
:1001D00008950F931F93CF93DF938C01EC01C60F0B
:1001E000D71F40E06B81FC0180810E949D0440E0AC
:1001F0006981F80180810E949D04DF91CF911F9158
:100200000F910895CF93DF93EC0141E069818881DC
:100210000E9402048A819B818130910531F440E083
:10022000698188810E949D0407C0892B29F441E0DF
:10023000698188810E949D04DF91CF910895FC011E
:10024000228133812130310531F441E061818081A7
:100250000E949D040895232B31F440E0FC0161814C
:1002600080810E949D040895FC0122813381213008
:10027000310531F440E0618180810E949D04089540
:10028000232B31F441E0FC01618180810E949D04B7
:10029000089540E060E080E00E9402040E94F405BE
:1002A000089580E090E00E9409060E94FD050E94EA
:1002B000FF059C01A0E0BAE00E94960626EF37E217
:1002C00040E050E00E947406CA01B901089540E080
:1002D00061E080E00E9402040E94F405089581E03C
:1002E00090E00E9409060E94FD050E94FF05BC01E6
:1002F00080E090E00895682F82E00E94E20340E0F1
:1003000061E083E00E949D0441E060E083E00E94A0
:100310009D0441E062E083E00E949D0468EE73E08A
:1003200080E090E00E942B0640E062E083E00E94C3
:100330009D0468EE73E080E090E00E942B06089533
:10034000682F82E00E94E20340E061E083E00E94C7
:100350009D0440E060E083E00E949D0441E062E093
:1003600083E00E949D0468EE73E080E090E00E94CC
:100370002B0640E062E083E00E949D0468EE73E09B
:1003800080E090E00E942B0608956FEF82E00E94CB
:10039000C20341E061E083E00E94020441E060E0CA
:1003A00083E00E94020441E062E083E00E940204D4
:1003B00060E573EC80E090E00E942B0688E30E94E9
:1003C000A00168EE73E080E090E00E942B068EE0D2
:1003D0000E94A00168EE73E080E090E00E942B068E
:1003E00081E00E94A00168EB7BE080E090E00E9449
:1003F0002B0682E00E94A00168EB7BE080E090E0A9
:100400000E942B0608950F931F93CF93FC018081C8
:10041000882359F08F01C0E00E947B01CF5FF80173
:10042000EC0FF11D80818111F7CFCF911F910F91BA
:1004300008952F923F924F925F926F927F928F9288
:100440009F92AF92BF92CF92DF92EF92FF920F9363
:100450001F93CF93DF93CDB7DEB728970FB6F894ED
:10046000DEBF0FBECDBF29833A834B835C836D8390
:100470007E83382E292EA0E00E94260721F480E3F7
:100480000E947B01BDC044244394512C612C712CEB
:10049000812C912C18861F82242D352D462D572D09
:1004A000682D792D88859F8101E00E940407822EA6
:1004B000932E48875F83B62FA72FF82FE92F02E0EE
:1004C0000E940407A22EB32EC42ED52EE62EF72EA0
:1004D000082F192F282D392D48855F816B2F7A2FF2
:1004E0008F2F9E2F0E941D0728873F83942E852ED5
:1004F000762E672E582E492E0F2EFAE0AF2EF02DB5
:10050000B12CC12CD12CE12CF12C00E010E0298180
:100510003A814B815C816D817E81832D922D0E9479
:10052000A506A884BF80C92CD82CE72CF62C052D55
:10053000142D0E941D07422E532E642E752E862EDA
:10054000972E88879F830F2EFAE0AF2EF02DB12CC7
:10055000C12CD12CE12CF12C00E010E029813A8152
:100560004B815C816D817E81832D922D0E94A70637
:1005700029833A834B835C836D837E83382E292EB7
:10058000A0E00E94260709F087CF242D352D462DA7
:10059000572D682D792D88859F81A1E00E9426071F
:1005A00079F10F2EFAE0AF2EF02DB12CC12CD12C09
:1005B000E12CF12C00E010E0242D352D462D572D97
:1005C000682D792D88859F810E94A50680E3820F82
:1005D0000E947B01242D352D462D572D682D792D18
:1005E00088859F810E94A706422E532E642E752E69
:1005F000862E972E88879F83A1E00E94260789F682
:1006000028960FB6F894DEBF0FBECDBFDF91CF9115
:100610001F910F91FF90EF90DF90CF90BF90AF9020
:100620009F908F907F906F905F904F903F902F9012
:100630000895813029F48FE7860F0E94A001089564
:10064000823021F48FEB860F0E94A0010895EF9273
:10065000FF920F931F93CF93DF93F82EE62E80E443
:100660000E94A001C0E6D0E008E810E089910E9455
:100670007B010C171D07D1F76E2D8F2D0E941903DA
:10068000C0E08C2F0E947B01CF5FC530D1F7DF9196
:10069000CF911F910F91FF90EF90089581E00E94FC
:1006A000A00168EE73E080E090E00E942B060895C0
:1006B00088E00E94A00168EE73E080E090E00E9474
:1006C0002B060895CF93DF93C82FD92F613051F4B3
:1006D00041E0692F0E94020441E06D2F8C2F0E949F
:1006E0009D040BC0611109C041E0692F0E94020402
:1006F00040E06D2F8C2F0E949D04DF91CF910895D3
:10070000CF93DF93C82FD92F613051F441E0692F87
:100710000E94020440E06D2F8C2F0E949D040BC0AC
:10072000611109C041E0692F0E94020441E06D2F70
:100730008C2F0E949D04DF91CF9108951F93CF933A
:10074000DF93172FD42FC62F6FEF872F0E94C2037E
:10075000C13051F4ED2FF0E0E857FF4F6081609514
:10076000812F0E94E2030AC0C11108C0ED2FF0E002
:10077000E857FF4F6081812F0E94E203DF91CF9104
:100780001F9108958430C0F4813051F028F08230F8
:1007900059F0833069F013C06ABB81E090E008959E
:1007A00067BB81E090E0089564BB81E090E008952C
:1007B00061BB81E090E0089580E090E0089580E0E2
:1007C00090E008958430C0F4813051F028F08230F8
:1007D00059F0833069F013C06BBB81E090E008955D
:1007E00068BB81E090E0089565BB81E090E00895EA
:1007F00062BB81E090E0089580E090E0089580E0A1
:1008000090E00895843008F086C0813039F138F0E6
:10081000823009F442C0833009F45EC07FC04130A9
:1008200069F42AB381E090E002C0880F991F6A95AD
:10083000E2F7822B8ABB81E090E00895411171C0FC
:100840002AB381E090E002C0880F991F6A95E2F711
:10085000809582238ABB81E090E00895413069F45D
:1008600027B381E090E002C0880F991F6A95E2F7F4
:10087000822B87BB81E090E00895411155C027B3DA
:1008800081E090E002C0880F991F6A95E2F7809599
:10089000822387BB81E090E00895413069F424B35E
:1008A00081E090E002C0880F991F6A95E2F7822BE1
:1008B00084BB81E090E00895411139C024B381E008
:1008C00090E002C0880F991F6A95E2F78095822315
:1008D00084BB81E090E00895413069F421B381E068
:1008E00090E002C0880F991F6A95E2F7822B81BBC6
:1008F00081E090E0089541111DC021B381E090E0B6
:1009000002C0880F991F6A95E2F78095822381BB08
:1009100081E090E0089580E090E0089580E090E02C
:10092000089580E090E0089580E090E0089580E0F0
:1009300090E0089580E090E00895843008F089C048
:10094000683008F089C0813039F138F0823009F41C
:1009500042C0833009F45EC082C0413069F42BB3D9
:1009600081E090E002C0880F991F6A95E2F7822B20
:100970008BBB81E090E00895411174C02BB381E0FE
:1009800090E002C0880F991F6A95E2F78095822354
:100990008BBB81E090E00895413069F428B381E099
:1009A00090E002C0880F991F6A95E2F7822B88BBFE
:1009B00081E090E00895411158C028B381E090E0B3
:1009C00002C0880F991F6A95E2F78095822388BB41
:1009D00081E090E00895413069F425B381E090E032
:1009E00002C0880F991F6A95E2F7822B85BB81E0D0
:1009F00090E0089541113CC025B381E090E002C031
:100A0000880F991F6A95E2F78095822385BB81E064
:100A100090E00895413069F422B381E090E002C093
:100A2000880F991F6A95E2F7822B82BB81E090E0E4
:100A30000895411120C022B381E090E002C0880FE8
:100A4000991F6A95E2F78095822382BB81E090E04E
:100A5000089580E090E0089580E090E0089580E0BF
:100A600090E0089580E090E0089580E090E008959F
:100A700080E090E0089580E090E00895843000F5F3
:100A8000813061F028F0823079F0833099F01BC01A
:100A900089B3FB01808381E090E0089586B3FB0178
:100AA000808381E090E0089583B3FB01808381E03F
:100AB00090E0089580B3FB01808381E090E0089589
:100AC00080E090E0089580E090E008958430F8F5AB
:100AD000683008F03FC0813099F028F08230E9F0AA
:100AE000833041F13AC089B390E002C09595879573
:100AF0006A95E2F78170FA01808381E090E00895C1
:100B000086B390E002C0959587956A95E2F781706B
:100B1000FA01808381E090E0089583B390E002C001
:100B2000959587956A95E2F78170FA01808381E057
:100B300090E0089580B390E002C0959587956A95FE
:100B4000E2F78170FA01808381E090E0089580E00F
:100B500090E0089580E090E0089580E090E00895AE
:100B60001BB888E18AB986E880BD83E389B910BCE7
:100B700008955F9BFECF8CB108958CB95E9BFECF2C
:100B80005D9BFECF08951F93CF93DF93C0E0D1E02C
:100B900010E006C0EC2FF0E0EE56FF4F9083CF5FE1
:100BA0000E94B9059D2F8D3009F4912F8D3091F75A
:100BB00082E990E0DF91CF911F9108950F931F93E9
:100BC000CF93FC018081882359F08F01C0E0CF5F73
:100BD0000E94BD05F801EC0FF11D80818111F7CF56
:100BE000CF911F910F910895379A86B1876086B98A
:100BF0003F9A87B187B93D980895369A0895349BF6
:100C0000FECF84B1811101C085B1349A80E090E0BB
:100C1000089597B1907E97B997B1892B87B90895B8
:100C200097B1907E97B997B1892B87B90895359A76
:100C3000089590B79F7190BF90B78295880F807E7E
:100C4000982B90BF08951FBC82E08EBD089589B790
:100C5000846089BF08950F931F938B019C0101301D
:100C6000110581E028073105F8F0B901A8011DBC84
:100C70001CBC08B602FEFDCF88B7846088BF6150F7
:100C800071094130510581E06807710580F7D9018C
:100C9000C8010197A140B10988279927215031093E
:100CA000081B190B2A0B3B0B0115110581E02807C6
:100CB000310530F41195019511091DBD0CBD07C01A
:100CC000011511052140310511F41DBC1CBC08B6ED
:100CD00002FEFDCF88B7846088BF1F910F910895F1
:100CE0008FB780688FBF0895A1E21A2EAA1BBB1B85
:100CF000FD010DC0AA1FBB1FEE1FFF1FA217B307E8
:100D0000E407F50720F0A21BB30BE40BF50B661FFD
:100D1000771F881F991F1A9469F7609570958095C1
:100D200090959B01AC01BD01CF010895A29FB00138
:100D3000B39FC001A39F700D811D1124911DB29F0F
:100D4000700D811D1124911D0895689401C0E894CF
:100D50008F929F92CF93DF930E94B306DF91CF9142
:100D60009F908F90089588249924F401E401B0E4C1
:100D70009F93AA279A158B049C04ED05FE05CF05C9
:100D8000D007A10798F4AD2FDC2FCF2FFE2FE92D30
:100D9000982C892E982F872F762F652F542F432F2D
:100DA000322F2227B85031F7BF9127C01B2EBF9199
:100DB000BB27220F331F441F551F661F771F881F35
:100DC000991F881C991CEE1FFF1FCC1FDD1FAA1F37
:100DD000BB1F8A149B04EC05FD05CE05DF05A007AB
:100DE000B10748F08A189B08EC09FD09CE09DF0914
:100DF000A00BB10B21601A94E1F62EF49401AF011F
:100E0000BE01CD01000C08950F93083090F0982F8B
:100E1000872F762F652F542F432F322F22270850EC
:100E2000F4CF220F331F441F551F661F771F881FE3
:100E3000991F0A95B2F70F9108952A0D3B1D4C1D7D
:100E40005D1D6E1D7F1D801F911F08950024A7FD4D
:100E500000942A173005400550056005700580058F
:080E600090050895F894FFCFFE
:100E68000000010107000000000000001F0A0E003A
:100E780000040A011F00000007041F000404040402
:100E880000000000000000003F065B4F666D7D0714
:020E98007F6F6A
:00000001FF
