:100000000C942A000C9447000C9447000C94470071
:100010000C9447000C9447000C9447000C94470044
:100020000C9447000C9447000C9447000C94470034
:100030000C9447000C9447000C9447000C94470024
:100040000C9447000C9447000C9447000C94470014
:100050000C94470011241FBECFE5D8E0DEBFCDBF12
:1000600010E0A0E6B0E0E8EAFDE002C005900D92E5
:10007000A838B107D9F720E0A8E8B0E001C01D9288
:10008000AC39B207E1F70E9449000C94D2060C94F7
:100090000000CF93DF9300D000D0CDB7DEB782E071
:1000A000898381E08A8381E090E09C838B830E9436
:1000B000C305CE0101960E940201CE0101960E9465
:1000C0003401CE0101960E941F0160E472E48FE0CA
:1000D00090E00E94CB05CE0101960E94340160E4BD
:1000E00072E48FE090E00E94CB05EBCF40E060E04F
:1000F00083E00E94A20341E061E083E00E94A2034A
:100100000E94500508950E94590508950E945D05BA
:100110000895CF93DF93EC0141E0698188810E94CB
:10012000A20341E06A8188810E94A20341E06981C3
:1001300088810E94A20341E06A8188810E94A20313
:1001400040E0698188810E943D0440E06A818881A5
:100150000E943D0440E06B8188810E943D0440E0A4
:100160006C8188810E943D04DF91CF9108950F93A7
:100170001F93CF93DF938C01EC01C60FD71F41E093
:100180006981FC0180810E943D0440E06B81F8019F
:1001900080810E943D04DF91CF911F910F910895BE
:1001A0000F931F93CF93DF938C01EC01C60FD71FE2
:1001B00040E06981FC0180810E943D0441E06B8147
:1001C000F80180810E943D04DF91CF911F910F9132
:1001D00008950F931F93CF93DF938C01EC01C60F0B
:1001E000D71F40E06B81FC0180810E943D0440E00C
:1001F0006981F80180810E943D04DF91CF911F91B8
:100200000F910895CF93DF93EC0141E069818881DC
:100210000E94A2038A819B818130910531F440E0E4
:10022000698188810E943D0407C0892B29F441E03F
:10023000698188810E943D04DF91CF910895FC017E
:10024000228133812130310531F441E061818081A7
:100250000E943D040895232B31F440E0FC016181AC
:1002600080810E943D040895FC0122813381213068
:10027000310531F440E0618180810E943D040895A0
:10028000232B31F441E0FC01618180810E943D0417
:10029000089540E060E080E00E94A2030E9494057F
:1002A000089580E090E00E94A9050E949D050E94AB
:1002B0009F059C01A0E0BAE00E94360626EF37E2D7
:1002C00040E050E00E941406CA01B901089540E0E0
:1002D00061E080E00E94A2030E949405089581E0FD
:1002E00090E00E94A9050E949D050E949F05BC0107
:1002F00080E090E00895682F82E00E94820340E051
:1003000061E083E00E943D0441E060E083E00E9400
:100310003D0441E062E083E00E943D0468EE73E04A
:1003200080E090E00E94CB0540E062E083E00E9424
:100330003D0468EE73E080E090E00E94CB050895F4
:10034000682F82E00E94820340E061E083E00E9427
:100350003D0440E060E083E00E943D0441E062E053
:1003600083E00E943D0468EE73E080E090E00E942C
:10037000CB0540E062E083E00E943D0468EE73E05C
:1003800080E090E00E94CB0508956FEF82E00E942C
:10039000620341E061E083E00E94A20341E060E08B
:1003A00083E00E94A20341E062E083E00E94A20396
:1003B00060E573EC80E090E00E94CB0588E30E944A
:1003C000A00168EE73E080E090E00E94CB058EE033
:1003D0000E94A00168EE73E080E090E00E94CB05EF
:1003E00081E00E94A00168EB7BE080E090E00E9449
:1003F000CB0582E00E94A00168EB7BE080E090E00A
:100400000E94CB0508950F931F93CF93FC01808129
:10041000882359F08F01C0E00E947B01CF5FF80173
:10042000EC0FF11D80818111F7CFCF911F910F91BA
:1004300008952F923F924F925F926F927F928F9288
:100440009F92AF92BF92CF92DF92EF92FF920F9363
:100450001F93CF93DF93CDB7DEB728970FB6F894ED
:10046000DEBF0FBECDBF29833A834B835C836D8390
:100470007E83382E292EA0E00E94C60621F480E358
:100480000E947B01BDC044244394512C612C712CEB
:10049000812C912C18861F82242D352D462D572D09
:1004A000682D792D88859F8101E00E94A406822E07
:1004B000932E48875F83B62FA72FF82FE92F02E0EE
:1004C0000E94A406A22EB32EC42ED52EE62EF72E01
:1004D000082F192F282D392D48855F816B2F7A2FF2
:1004E0008F2F9E2F0E94BD0628873F83942E852E36
:1004F000762E672E582E492E0F2EFAE0AF2EF02DB5
:10050000B12CC12CD12CE12CF12C00E010E0298180
:100510003A814B815C816D817E81832D922D0E9479
:100520004506A884BF80C92CD82CE72CF62C052DB5
:10053000142D0E94BD06422E532E642E752E862E3B
:10054000972E88879F830F2EFAE0AF2EF02DB12CC7
:10055000C12CD12CE12CF12C00E010E029813A8152
:100560004B815C816D817E81832D922D0E94470697
:1005700029833A834B835C836D837E83382E292EB7
:10058000A0E00E94C60609F087CF242D352D462D08
:10059000572D682D792D88859F81A1E00E94C60680
:1005A00079F10F2EFAE0AF2EF02DB12CC12CD12C09
:1005B000E12CF12C00E010E0242D352D462D572D97
:1005C000682D792D88859F810E94450680E3820FE2
:1005D0000E947B01242D352D462D572D682D792D18
:1005E00088859F810E944706422E532E642E752EC9
:1005F000862E972E88879F83A1E00E94C60689F6E3
:1006000028960FB6F894DEBF0FBECDBFDF91CF9115
:100610001F910F91FF90EF90DF90CF90BF90AF9020
:100620009F908F907F906F905F904F903F902F9012
:100630000895813029F48FE7860F0E94A001089564
:10064000823021F48FEB860F0E94A0010895EF9273
:10065000FF920F931F93CF93DF93F82EE62E80E443
:100660000E94A001C0E6D0E008E810E089910E9455
:100670007B010C171D07D1F76E2D8F2D0E941903DA
:10068000C0E08C2F0E947B01CF5FC530D1F7DF9196
:10069000CF911F910F91FF90EF90089581E00E94FC
:1006A000A00168EE73E080E090E00E94CB05089521
:1006B00088E00E94A00168EE73E080E090E00E9474
:1006C000CB0508958430C0F4813051F028F0823099
:1006D00059F0833069F013C06ABB81E090E008955F
:1006E00067BB81E090E0089564BB81E090E00895ED
:1006F00061BB81E090E0089580E090E0089580E0A3
:1007000090E008958430C0F4813051F028F08230B8
:1007100059F0833069F013C06BBB81E090E008951D
:1007200068BB81E090E0089565BB81E090E00895AA
:1007300062BB81E090E0089580E090E0089580E061
:1007400090E00895843008F086C0813039F138F0A7
:10075000823009F442C0833009F45EC07FC041306A
:1007600069F42AB381E090E002C0880F991F6A956E
:10077000E2F7822B8ABB81E090E00895411171C0BD
:100780002AB381E090E002C0880F991F6A95E2F7D2
:10079000809582238ABB81E090E00895413069F41E
:1007A00027B381E090E002C0880F991F6A95E2F7B5
:1007B000822B87BB81E090E00895411155C027B39B
:1007C00081E090E002C0880F991F6A95E2F780955A
:1007D000822387BB81E090E00895413069F424B31F
:1007E00081E090E002C0880F991F6A95E2F7822BA2
:1007F00084BB81E090E00895411139C024B381E0C9
:1008000090E002C0880F991F6A95E2F780958223D5
:1008100084BB81E090E00895413069F421B381E028
:1008200090E002C0880F991F6A95E2F7822B81BB86
:1008300081E090E0089541111DC021B381E090E076
:1008400002C0880F991F6A95E2F78095822381BBC9
:1008500081E090E0089580E090E0089580E090E0ED
:10086000089580E090E0089580E090E0089580E0B1
:1008700090E0089580E090E00895843008F089C009
:10088000683008F089C0813039F138F0823009F4DD
:1008900042C0833009F45EC082C0413069F42BB39A
:1008A00081E090E002C0880F991F6A95E2F7822BE1
:1008B0008BBB81E090E00895411174C02BB381E0BF
:1008C00090E002C0880F991F6A95E2F78095822315
:1008D0008BBB81E090E00895413069F428B381E05A
:1008E00090E002C0880F991F6A95E2F7822B88BBBF
:1008F00081E090E00895411158C028B381E090E074
:1009000002C0880F991F6A95E2F78095822388BB01
:1009100081E090E00895413069F425B381E090E0F2
:1009200002C0880F991F6A95E2F7822B85BB81E090
:1009300090E0089541113CC025B381E090E002C0F1
:10094000880F991F6A95E2F78095822385BB81E025
:1009500090E00895413069F422B381E090E002C054
:10096000880F991F6A95E2F7822B82BB81E090E0A5
:100970000895411120C022B381E090E002C0880FA9
:10098000991F6A95E2F78095822382BB81E090E00F
:10099000089580E090E0089580E090E0089580E080
:1009A00090E0089580E090E0089580E090E0089560
:1009B00080E090E0089580E090E00895843000F5B4
:1009C000813061F028F0823079F0833099F01BC0DB
:1009D00089B3FB01808381E090E0089586B3FB0139
:1009E000808381E090E0089583B3FB01808381E000
:1009F00090E0089580B3FB01808381E090E008954A
:100A000080E090E0089580E090E008958430F8F56B
:100A1000683008F03FC0813099F028F08230E9F06A
:100A2000833041F13AC089B390E002C09595879533
:100A30006A95E2F78170FA01808381E090E0089581
:100A400086B390E002C0959587956A95E2F781702C
:100A5000FA01808381E090E0089583B390E002C0C2
:100A6000959587956A95E2F78170FA01808381E018
:100A700090E0089580B390E002C0959587956A95BF
:100A8000E2F78170FA01808381E090E0089580E0D0
:100A900090E0089580E090E0089580E090E008956F
:100AA0001BB888E18AB986E880BD83E389B910BCA8
:100AB00008955F9BFECF8CB108958CB95E9BFECFED
:100AC0005D9BFECF08951F93CF93DF93C0E0D1E0ED
:100AD00010E006C0EC2FF0E0E857FF4F9083CF5FA7
:100AE0000E9459059D2F8D3009F4912F8D3091F77B
:100AF00088E890E0DF91CF911F9108950F931F93A5
:100B0000CF93FC018081882359F08F01C0E0CF5F33
:100B10000E945D05F801EC0FF11D80818111F7CF76
:100B2000CF911F910F910895379A86B1876086B94A
:100B30003F9A87B187B93D980895369A0895349BB6
:100B4000FECF84B1811101C085B1349A80E090E07C
:100B5000089597B1907E97B997B1892B87B9089579
:100B600097B1907E97B997B1892B87B90895359A37
:100B7000089590B79F7190BF90B78295880F807E3F
:100B8000982B90BF08951FBC82E08EBD089589B751
:100B9000846089BF08950F931F938B019C010130DE
:100BA000110581E028073105F8F0B901A8011DBC45
:100BB0001CBC08B602FEFDCF88B7846088BF6150B8
:100BC00071094130510581E06807710580F7D9014D
:100BD000C8010197A140B1098827992721503109FF
:100BE000081B190B2A0B3B0B0115110581E0280787
:100BF000310530F41195019511091DBD0CBD07C0DB
:100C0000011511052140310511F41DBC1CBC08B6AD
:100C100002FEFDCF88B7846088BF1F910F910895B1
:100C20008FB780688FBF0895A1E21A2EAA1BBB1B45
:100C3000FD010DC0AA1FBB1FEE1FFF1FA217B307A8
:100C4000E407F50720F0A21BB30BE40BF50B661FBE
:100C5000771F881F991F1A9469F760957095809582
:100C600090959B01AC01BD01CF010895A29FB001F9
:100C7000B39FC001A39F700D811D1124911DB29FD0
:100C8000700D811D1124911D0895689401C0E89490
:100C90008F929F92CF93DF930E945306DF91CF9163
:100CA0009F908F90089588249924F401E401B0E482
:100CB0009F93AA279A158B049C04ED05FE05CF058A
:100CC000D007A10798F4AD2FDC2FCF2FFE2FE92DF1
:100CD000982C892E982F872F762F652F542F432FEE
:100CE000322F2227B85031F7BF9127C01B2EBF915A
:100CF000BB27220F331F441F551F661F771F881FF6
:100D0000991F881C991CEE1FFF1FCC1FDD1FAA1FF7
:100D1000BB1F8A149B04EC05FD05CE05DF05A0076B
:100D2000B10748F08A189B08EC09FD09CE09DF09D4
:100D3000A00BB10B21601A94E1F62EF49401AF01DF
:100D4000BE01CD01000C08950F93083090F0982F4C
:100D5000872F762F652F542F432F322F22270850AD
:100D6000F4CF220F331F441F551F661F771F881FA4
:100D7000991F0A95B2F70F9108952A0D3B1D4C1D3E
:100D80005D1D6E1D7F1D801F911F08950024A7FD0E
:100D900000942A1730054005500560057005800550
:080DA00090050895F894FFCFBF
:100DA8000000010107000000000000001F0A0E00FB
:100DB80000040A011F00000007041F0004040404C3
:080DC800000000000000000023
:00000001FF
