:100000000C942A000C9486070C94AF070C94D80724
:100010000C9447000C9447000C9447000C94260A5B
:100020000C9447000C9447000C9447000C94470034
:100030000C9447000C9447000C9447000C94470024
:100040000C9447000C9447000C9447000C94470014
:100050000C94470011241FBECFE5D8E0DEBFCDBF12
:1000600010E0A0E6B0E0EAE2F5E402C005900D92EF
:10007000A03AB107D9F727E0A0EAB0E001C01D928D
:10008000A330B207E1F70E9466000C9493220C940F
:100090000000CF93DF9300D000D0CDB7DEB7198238
:1000A0001A8281E090E09C838B83CE0101960E94AE
:1000B00024010E94EC178C01CE0101960E946B0175
:1000C00068EE73E0C8010E94031AF6CFEF92FF9228
:1000D0000F93CF93DF931F92CDB7DEB741E050E08F
:1000E00060E570E0CE0101960E94762269816F5F23
:1000F000698380E590E00E948622E090A000F09065
:10010000A10004E020E030E045E550E063E970E064
:1001100089E490E00E942B160E94B41780E090E0E2
:100120000F90DF91CF910F91FF90EF900895089578
:1001300040E060E083E00E94880441E061E083E009
:100140000E9488040E94800608950E9489060895EE
:100150000E948D060895CF93DF93EC0141E0698101
:1001600088810E94880441E06A8188810E94880415
:1001700041E0698188810E94880441E06A81888128
:100180000E94880440E0698188810E94230540E044
:100190006A8188810E94230540E06B8188810E94EA
:1001A000230540E06C8188810E942305DF91CF9177
:1001B00008950F931F93CF93DF938C01EC01C60F2B
:1001C000D71F41E06981FC0180810E94230540E046
:1001D0006B81F80180810E942305DF91CF911F91EF
:1001E0000F9108950F931F93CF93DF938C01EC0130
:1001F000C60FD71F40E06981FC0180810E94230562
:1002000041E06B81F80180810E942305DF91CF914D
:100210001F910F9108950F931F93CF93DF938C013C
:10022000EC01C60FD71F40E06B81FC0180810E946A
:10023000230540E06981F80180810E942305DF9158
:10024000CF911F910F910895CF93DF93EC0141E07F
:10025000698188810E9488048A819B81813091050F
:1002600031F440E0698188810E94230507C0892B11
:1002700029F441E0698188810E942305DF91CF91B3
:100280000895FC01228133812130310531F441E0B0
:10029000618180810E9423050895232B31F440E081
:1002A000FC01618180810E9423050895FC01228167
:1002B00033812130310531F440E0618180810E9439
:1002C00023050895232B31F441E0FC0161818081F5
:1002D0000E9423050895FC01618180810E94C4056C
:1002E000089540E060E080E00E9488040E94C40617
:1002F000089580E090E00E94D9060E94CD060E94F9
:10030000CF069C01A0E0BAE00E94D12126EF37E29F
:1003100040E050E00E94AF21CA01B901089540E0D9
:1003200061E080E00E9488040E94C406089581E094
:1003300090E00E94D9060E94CD060E94CF06BC0123
:1003400080E090E00895682F82E00E94680440E019
:1003500061E083E00E94230541E060E083E00E94C9
:10036000230541E062E083E00E94230568EE73E02C
:1003700080E090E00E94F70640E062E083E00E94A7
:10038000230568EE73E080E090E00E94F706089590
:10039000682F82E00E94680440E061E083E00E94F0
:1003A000230540E060E083E00E94230541E062E035
:1003B00083E00E94230568EE73E080E090E00E94F5
:1003C000F70640E062E083E00E94230568EE73E0F8
:1003D00080E090E00E94F70608956FEF82E00E94AF
:1003E000480441E061E083E00E94880441E060E06D
:1003F00083E00E94880441E062E083E00E94880478
:1004000060E573EC80E090E00E94F70688E30E94CC
:10041000C80168EE73E080E090E00E94F7068EE08D
:100420000E94C80168EE73E080E090E00E94F70649
:1004300081E00E94C80168EB7BE080E090E00E94D0
:10044000F70682E00E94C80168EB7BE080E090E064
:100450000E94F70608950F931F93CF93FC018081AC
:10046000882359F08F01C0E00E94A301CF5FF801FB
:10047000EC0FF11D80818111F7CFCF911F910F916A
:1004800008952F923F924F925F926F927F928F9238
:100490009F92AF92BF92CF92DF92EF92FF920F9313
:1004A0001F93CF93DF93CDB7DEB728970FB6F8949D
:1004B000DEBF0FBECDBF29833A834B835C836D8340
:1004C0007E83382E292EA0E00E94612221F480E351
:1004D0000E94A301BDC044244394512C612C712C73
:1004E000812C912C18861F82242D352D462D572DB9
:1004F000682D792D88859F8101E00E943F22822E00
:10050000932E48875F83B62FA72FF82FE92F02E09D
:100510000E943F22A22EB32EC42ED52EE62EF72EF9
:10052000082F192F282D392D48855F816B2F7A2FA1
:100530008F2F9E2F0E94582228873F83942E852E2E
:10054000762E672E582E492E0F2EFAE0AF2EF02D64
:10055000B12CC12CD12CE12CF12C00E010E0298130
:100560003A814B815C816D817E81832D922D0E9429
:10057000E021A884BF80C92CD82CE72CF62C052DAF
:10058000142D0E945822422E532E642E752E862E34
:10059000972E88879F830F2EFAE0AF2EF02DB12C77
:1005A000C12CD12CE12CF12C00E010E029813A8102
:1005B0004B815C816D817E81832D922D0E94E22191
:1005C00029833A834B835C836D837E83382E292E67
:1005D000A0E00E94612209F087CF242D352D462D01
:1005E000572D682D792D88859F81A1E00E94612279
:1005F00079F10F2EFAE0AF2EF02DB12CC12CD12CB9
:10060000E12CF12C00E010E0242D352D462D572D46
:10061000682D792D88859F810E94E02180E3820FDB
:100620000E94A301242D352D462D572D682D792D9F
:1006300088859F810E94E221422E532E642E752EC2
:10064000862E972E88879F83A1E00E94612289F6DB
:1006500028960FB6F894DEBF0FBECDBFDF91CF91C5
:100660001F910F91FF90EF90DF90CF90BF90AF90D0
:100670009F908F907F906F905F904F903F902F90C2
:100680000895813029F48FE7860F0E94C8010895EC
:10069000823021F48FEB860F0E94C8010895EF92FB
:1006A000FF920F931F93CF93DF93F82EE62E80E4F3
:1006B0000E94C801C0E6D0E008E810E089910E94DD
:1006C000A3010C171D07D1F76E2D8F2D0E9441033A
:1006D000C0E08C2F0E94A301CF5FC530D1F7DF911E
:1006E000CF911F910F91FF90EF90089581E00E94AC
:1006F000C80168EE73E080E090E00E94F70608957C
:1007000088E00E94C80168EE73E080E090E00E94FB
:10071000F7060895CF93C72F41E0692F0E94880400
:100720006FEF8C2F0E944804CF910895613029F417
:1007300041E0692F0E9423050895611104C040E043
:10074000692F0E9423050895613029F440E0692F44
:100750000E9423050895611104C041E0692F0E94A1
:1007600023050895613051F4E42FF0E0E757FF4F7F
:1007700060816095872F0E9468040895611108C008
:10078000E42FF0E0E757FF4F6081872F0E94680455
:100790000895CF93DF93EC0140E0698188810E9446
:1007A00088048A819B81892B31F441E069818881A9
:1007B0000E94230505C040E0698188810E942305CD
:1007C000DF91CF9108950F931F93CF93DF931F92E3
:1007D000CDB7DEB78C011982AE014F5F5F4FFC01D0
:1007E000618180810E943606F80182819381892B84
:1007F00019F48981809501C089810F90DF91CF9193
:100800001F910F9108950E943C0741E060E081E054
:100810000E94880441E061E081E00E94880440E099
:1008200060E081E00E94230540E061E081E00E94F9
:1008300023050895CF93DF93EC01862F0E946C0768
:10084000209719F0219761F015C041E060E081E048
:100850000E94230540E061E081E00E9423050AC078
:1008600040E060E081E00E94230541E061E081E03A
:100870000E942305DF91CF91089540E060E081E080
:100880000E94230540E060E081E00E942305089576
:100890008430C0F4813051F028F0823059F0833038
:1008A00069F013C06ABB81E090E0089567BB81E006
:1008B00090E0089564BB81E090E0089561BB81E021
:1008C00090E0089580E090E0089580E090E0089541
:1008D0008430C0F4813051F028F0823059F08330F8
:1008E00069F013C06BBB81E090E0089568BB81E0C4
:1008F00090E0089565BB81E090E0089562BB81E0DF
:1009000090E0089580E090E0089580E090E0089500
:10091000843008F086C0813039F138F0823009F433
:1009200042C0833009F45EC07FC0413069F42AB30D
:1009300081E090E002C0880F991F6A95E2F7822B50
:100940008ABB81E090E00895411171C02AB381E033
:1009500090E002C0880F991F6A95E2F78095822384
:100960008ABB81E090E00895413069F427B381E0CB
:1009700090E002C0880F991F6A95E2F7822B87BB2F
:1009800081E090E00895411155C027B381E090E0E7
:1009900002C0880F991F6A95E2F78095822387BB72
:1009A00081E090E00895413069F424B381E090E063
:1009B00002C0880F991F6A95E2F7822B84BB81E001
:1009C00090E00895411139C024B381E090E002C065
:1009D000880F991F6A95E2F78095822384BB81E096
:1009E00090E00895413069F421B381E090E002C0C5
:1009F000880F991F6A95E2F7822B81BB81E090E016
:100A0000089541111DC021B381E090E002C0880F1C
:100A1000991F6A95E2F78095822381BB81E090E07F
:100A2000089580E090E0089580E090E0089580E0EF
:100A300090E0089580E090E0089580E090E00895CF
:100A400080E090E00895843008F089C0683008F0B4
:100A500089C0813039F138F0823009F442C08330E6
:100A600009F45EC082C0413069F42BB381E090E0AC
:100A700002C0880F991F6A95E2F7822B8BBB81E039
:100A800090E00895411174C02BB381E090E002C062
:100A9000880F991F6A95E2F7809582238BBB81E0CE
:100AA00090E00895413069F428B381E090E002C0FD
:100AB000880F991F6A95E2F7822B88BB81E090E04E
:100AC0000895411158C028B381E090E002C0880F1A
:100AD000991F6A95E2F78095822388BB81E090E0B8
:100AE0000895413069F425B381E090E002C0880F99
:100AF000991F6A95E2F7822B85BB81E090E008950B
:100B000041113CC025B381E090E002C0880F991FDD
:100B10006A95E2F78095822385BB81E090E0089595
:100B2000413069F422B381E090E002C0880F991F40
:100B30006A95E2F7822B82BB81E090E00895411133
:100B400020C022B381E090E002C0880F991F6A950F
:100B5000E2F78095822382BB81E090E0089580E0F7
:100B600090E0089580E090E0089580E090E008959E
:100B700080E090E0089580E090E0089580E090E0CB
:100B8000089580E090E008958430F8F5683008F02A
:100B90003FC0813099F028F08230E9F0833041F194
:100BA0003AC02BB381E090E002C0880F991F6A958C
:100BB000E2F782278BBB81E090E0089528B381E0C3
:100BC00090E002C0880F991F6A95E2F7822788BBE0
:100BD00081E090E0089525B381E090E002C0880FA5
:100BE000991F6A95E2F7822785BB81E090E008951E
:100BF00022B381E090E002C0880F991F6A95E2F766
:100C0000822782BB81E090E0089580E090E0089523
:100C100080E090E0089580E090E00895843000F551
:100C2000813061F028F0823079F0833099F01BC078
:100C300089B3FB01808381E090E0089586B3FB01D6
:100C4000808381E090E0089583B3FB01808381E09D
:100C500090E0089580B3FB01808381E090E00895E7
:100C600080E090E0089580E090E008958430F8F509
:100C7000683008F03FC0813099F028F08230E9F008
:100C8000833041F13AC089B390E002C095958795D1
:100C90006A95E2F78170FA01808381E090E008951F
:100CA00086B390E002C0959587956A95E2F78170CA
:100CB000FA01808381E090E0089583B390E002C060
:100CC000959587956A95E2F78170FA01808381E0B6
:100CD00090E0089580B390E002C0959587956A955D
:100CE000E2F78170FA01808381E090E0089580E06E
:100CF00090E0089580E090E0089580E090E008950D
:100D00001BB888E18AB986E880BD83E389B910BC45
:100D100008955F9BFECF8CB108958CB95E9BFECF8A
:100D20005D9BFECF08951F93CF93DF93C0E0D1E08A
:100D300010E006C0EC2FF0E0E151F94F9083CF5F57
:100D40000E9489069D2F8D3009F4912F8D3091F7E7
:100D50008FEE96E0DF91CF911F9108950F931F932F
:100D6000CF93FC018081882359F08F01C0E0CF5FD1
:100D70000E948D06F801EC0FF11D80818111F7CFE3
:100D8000CF911F910F910895379A86B1876086B9E8
:100D90003F9A87B187B93D980895369A0895349B54
:100DA000FECF84B1811101C085B1349A80E090E01A
:100DB000089597B1907E97B997B1892B87B9089517
:100DC00097B1907E97B997B1892B87B90895359AD5
:100DD000089590B79F7190BF90B78295880F807EDD
:100DE000982B90BF08951FBC82E08EBD08950F938D
:100DF0001F938B019C010130110581E0280731050B
:100E0000F8F0B901A8011DBC1CBC08B602FEFDCF5C
:100E100088B7846088BF615071094130510581E015
:100E20006807710580F7D901C8010197A140B10990
:100E30008827992721503109081B190B2A0B3B0BD6
:100E40000115110581E02807310530F41195019550
:100E500011091DBD0CBD07C001151105214031054B
:100E600011F41DBC1CBC08B602FEFDCF88B784601F
:100E700088BF1F910F91089583E683BF08950F9354
:100E80001F938B019C016F3F710581059105F1F066
:100E9000E8F0AB01BC0112BE08B600FEFDCF88B77A
:100EA000816088BF5150610971094F3F510561054B
:100EB000710509F080F711272227332707C008B6EC
:100EC00000FEFDCF88B7816088BF03C0019502BFD7
:100ED000F6CF1F910F91089512BE982F80E064E61F
:100EE00070E00E949B2161506CBF08951BBE85B7C6
:100EF000826085BF8BB780648BBF0895880F991F70
:100F0000FC01EE55FF4F7183608308951F920F928D
:100F10000FB60F9211242F933F934F935F936F93CC
:100F20007F938F939F93AF93BF93EF93FF93E09142
:100F3000A200F091A300309709F00995FF91EF917D
:100F4000BF91AF919F918F917F916F915F914F91E1
:100F50003F912F910F900FBE0F901F9018951F92E9
:100F60000F920FB60F9211242F933F934F935F93DD
:100F70006F937F938F939F93AF93BF93EF93FF9361
:100F8000E091A400F091A500309709F00995FF9138
:100F9000EF91BF91AF919F918F917F916F915F91F1
:100FA0004F913F912F910F900FBE0F901F9018956A
:100FB0001F920F920FB60F9211242F933F934F93CE
:100FC0005F936F937F938F939F93AF93BF93EF93B1
:100FD000FF93E091A600F091A700309709F00995E2
:100FE000FF91EF91BF91AF919F918F917F916F9101
:100FF0005F914F913F912F910F900FBE0F901F90D7
:10100000189581B181B987E480B984E086BF0895DD
:1010100084EA86BF06B607FEFDCF91B1987F21E036
:1010200030E0903111F020E030E0C901089584EA09
:1010300086BF06B607FEFDCF91B1987F21E030E074
:10104000983011F020E030E0C901089584E986BFAE
:101050000895880F862B83B984EC86BF06B607FEF9
:10106000FDCF81B1887F883111F4662351F081B1C1
:10107000887F803449F481E090E0613039F080E08D
:10108000089581E090E0089580E090E0089512B81E
:1010900084E886BF06B607FEFDCF089583B984ECC9
:1010A00086BF06B607FEFDCF91B1987F21E030E004
:1010B000983211F020E030E0C9010895FC0194E875
:1010C00096BF06B607FEFDCF91B1987F983529F4FB
:1010D00083B1808381E090E0089580E090E00895FE
:1010E000FC0194EC96BF06B607FEFDCF91B1987F48
:1010F000903529F483B1808381E090E0089580E009
:1011000090E0089584E086BF8BEA82B984E886BFC8
:10111000089506B607FEFDCF81B1887F883A41F079
:1011200021B1287F81E090E0203621F080E0089511
:1011300081E090E0089583B984EC86BF06B607FE8F
:10114000FDCF91B1987F21E030E0983B11F020E095
:1011500030E0C9010895FC0194EC96BF06B607FE85
:10116000FDCF91B1987F983729F483B1808381E0D6
:1011700090E0089580E090E00895FC0194E896BF27
:1011800006B607FEFDCF91B1987F983829F483B158
:10119000808381E090E0089580E090E0089531E15F
:1011A000FC013083319722E220833197A3E3A083AF
:1011B000319760833197708331971082319760E85F
:1011C000608331971082319762E06083319763E0EA
:1011D0006083319764E06083319765E06083319785
:1011E00066E06083319767E06083319768E06083F1
:1011F000319769E06083319760E160833197308394
:10120000319732E13083319733E13083319734E1E4
:101210003083319735E13083319736E13083319730
:1012200037E13083319738E13083319739E13083CA
:10123000319730E23083319731E230833197208328
:10124000319723E220833197408331975083319740
:1012500026E22083319727E22083319728E22083FA
:10126000319729E22083319720E32083319721E3CE
:101270002083869708951BBC8CE78ABD8BE08EBDCA
:1012800089B7806189BFA0918806B0918906CD9108
:10129000CDBFDD91DEBFFF91EF91DF91CF91BF9187
:1012A000AF919F918F917F916F915F914F913F91FE
:1012B0002F911F910F91FF90EF90DF90CF90BF90F3
:1012C000AF909F908F907F906F905F904F903F90E6
:1012D0002F901F900F900FBE0F90089581E00895FA
:1012E00008950F920FB6F8940F921F9211242F9227
:1012F0003F924F925F926F927F928F929F92AF92A6
:10130000BF92CF92DF92EF92FF920F931F932F9392
:101310003F934F935F936F937F938F939F93AF937D
:10132000BF93CF93DF93EF93FF93A0918806B09183
:1013300089060DB60D920EB60D920E94771AA091F5
:101340008806B0918906CD91CDBFDD91DEBFFF91BA
:10135000EF91DF91CF91BF91AF919F918F917F914D
:101360006F915F914F913F912F911F910F91FF903E
:10137000EF90DF90CF90BF90AF909F908F907F9035
:101380006F905F904F903F902F901F900F900FBEE7
:101390000F9008950F920FB6F8940F921F92112498
:1013A0002F923F924F925F926F927F928F929F9275
:1013B000AF92BF92CF92DF92EF92FF920F931F9363
:1013C0002F933F934F935F936F937F938F939F934D
:1013D000AF93BF93CF93DF93EF93FF93A0918806D2
:1013E000B09189060DB60D920EB60D920E940618A8
:1013F00081110E94771AA0918806B0918906CD913B
:10140000CDBFDD91DEBFFF91EF91DF91CF91BF9115
:10141000AF919F918F917F916F915F914F913F918C
:101420002F911F910F91FF90EF90DF90CF90BF9081
:10143000AF909F908F907F906F905F904F903F9074
:101440002F901F900F900FBE0F9008950E94CA0911
:101450001895CF93DF938BE090E00E94CF0BEC01C7
:10146000009731F0FC0111921192CF010E94180CEB
:10147000CE01DF91CF910895AF92BF92CF92DF92CC
:10148000EF92FF920F931F93CF93DF937C016B0139
:10149000A42EB22E0E94E617F701C081D181B110AF
:1014A00008C081E09E012C213D21232B51F480E0D6
:1014B00008C081E09E012C213D212C153D0509F03D
:1014C00080E0882361F0AA2009F450C0B60160953D
:1014D00070956C237D23F7017183608347C00115EC
:1014E000110509F443C0AA2019F060E071E002C0C0
:1014F00060E070E0B11074606C297D29A801C7011B
:1015000002960E94F61A0E942519811102C00E94BB
:1015100071090E94F61C91FD26C00FB6F8940F9237
:10152000F70180819181B11008C021E0A601482314
:101530005923452B51F420E008C021E0A60148239F
:1015400059234C155D0509F020E0222351F0AA2013
:1015500041F0B6016095709568237923F701718396
:1015600060830F900FBEEC01DD2702C00E94251999
:10157000CE01DF91CF911F910F91FF90EF90DF90FF
:10158000CF90BF90AF900895FC010FB6F8940F92E2
:101590008081918160957095682379237183608340
:1015A0000F900FBE0895FC01808191810895AF9244
:1015B000BF92CF92DF92EF92FF920F931F93CF9340
:1015C000DF937C018B01EC0125960E94E617D70181
:1015D0001796ED91FC9118978D919C911197082B7E
:1015E000192B0D931C93CE17DF07A1F100E010E03B
:1015F000BB24B394A12CC280D380808191819C01B3
:10160000332792FD0AC0D7016D917C916223732329
:101610004B2D672B61F44A2D0AC0D7016D917C9147
:10162000622373234B2D6217730709F04A2D44235D
:1016300059F090FF02C0022B132BD7016D917C91C2
:101640007260CF010E94FA1BEC2DFD2DCE17DF0733
:1016500091F602C000E010E000951095F70180813E
:10166000918108231923118300830E942519D70132
:101670008D919C91DF91CF911F910F91FF90EF90F1
:10168000DF90CF90BF90AF900895AF92BF92CF926E
:10169000DF92EF92FF920F931F93CF93DF938C0112
:1016A000EB017A0169010E94E617F801A080B18080
:1016B000BE01C8010E94D70ACA29DB29CE018E21AA
:1016C0009F21E816F90659F4A70140955095F801B5
:1016D000E080F1804E215F215183408331C0C114ED
:1016E000D10461F0A601B7017560C80102960E949D
:1016F000F61A0E942519811107C004C0F801C081A3
:10170000D1811EC00E9471090E94F61C91FD15C076
:101710000FB6F8940F92F8018081918197012823E8
:101720003923E216F30639F4A70140955095482372
:101730005923518340830F900FBEEC01DD2702C077
:101740000E942519CE01DF91CF911F910F91FF903B
:10175000EF90DF90CF90BF90AF900895CF93DF933D
:10176000EC010E94E6178A81882349F060E072E06C
:101770008F8198850E94FA1B8A818111F7CF0E9480
:101780002519CE010E94090CDF91CF910895BA016D
:101790000E94D70A0895BA010E94C40A0895CF93FF
:1017A000DF93EC010E94E6178091A8009091A900B8
:1017B000892B31F48CEA90E09093A9008093A800E3
:1017C0002097C9F08091AA009091AB009E01280F4C
:1017D000391F2B3D45E0340788F48217930788F4BE
:1017E000C091A800D091A900C80FD91F3093AB00B9
:1017F0002093AA0008C0C0E0D0E005C0C0E0D0E05F
:1018000002C0C0E0D0E00E942519CE01DF91CF9147
:10181000089508951092AB001092AA0008952091A7
:10182000AA003091AB008BED95E0821B930B0895DD
:10183000FC010396928381832FEF3FEF3483238350
:10184000968385839087878310820895FC01118693
:1018500010860895CF93DF939C01FB01DC01119664
:10186000CD91DC911297D383C2838C819D81958326
:1018700084838C819D81DC0113967C936E931297F7
:101880007D836C8331872087F90180818F5F80831E
:10189000DF91CF910895CF93DF93EB014881598178
:1018A0004F3F2FEF520721F4FC01A781B0850DC0F7
:1018B000DC01139601C0DF011296ED91FC911397A4
:1018C0002081318142175307B0F71296ED91FC91B8
:1018D0001397FB83EA83D583C483BD83AC831396BC
:1018E000DC93CE93129799878887FC0120812F5F24
:1018F0002083DF91CF910895CF93DF93FC01A085E2
:10190000B185C281D381848195819D838C83C4817B
:10191000D581828193819B838A8311968D919C913D
:101920001297E817F90731F48481958112969C93F8
:101930008E931197118610868C9181508C938C9187
:10194000DF91CF9108950FB6F8940F92FC01928D1C
:101950000F900FBE81E0911180E008950F931F93C7
:10196000CF93DF93EC01042F1A8D4C8D4423B9F1F2
:10197000011116C050E08A819B810E946D222C8D3E
:101980008A819B81820F911D9B838A832C813D815B
:101990008217930720F1888199819B838A831FC0D6
:1019A00050E08E819F810E946D228C8D90E09195F8
:1019B000819591092E813F81280F391F3F832E8306
:1019C000488159812417350730F42C813D81820FDD
:1019D000931F9F838E83023011F4111111501F5FEA
:1019E0001A8F80E0DF91CF911F910F910895FC0134
:1019F000448D4423A9F050E026813781240F351F00
:101A000037832683848195812817390720F08081C8
:101A1000918197838683CB01668177810E946D22B5
:101A20000895EF92FF920F931F93CF938C010FB6FF
:101A3000F8940F92FC01C68D1C16ACF481898111BB
:101A400006C011C0F8018189811105C00CC0780160
:101A5000F1E1EF0EF11CC7010E943C1B81110E94B5
:101A6000ED1CC15079F78FEFF801868F0F900FBEF4
:101A70000FB6F8940F92C58D1C16ACF480858111B9
:101A800006C011C0F8018085811105C00CC0780125
:101A9000F8E0EF0EF11CC7010E943C1B81110E946F
:101AA000ED1CC15079F78FEFF801858F0F900FBEB5
:101AB000CF911F910F91FF90EF900895EF92FF92B9
:101AC0000F931F93CF93DF93FC01362F892B09F4DB
:101AD0004CC0238D222309F44AC0022F10E0448D0C
:101AE000E42EF12C8FEF9FEFB8010E9487216E1535
:101AF0007F0508F43EC0EF010FB6F8940F926081A5
:101B00007181CB01249F800D911D112495838483C5
:101B1000128E73836283015011090E9DC0010F9DC7
:101B2000900D1E9D900D1124860F971F978386831D
:101B30008FEF858F868F31110CC08085882389F0C7
:101B4000CF0108960E943C1B882359F00E9471091E
:101B500008C0CF0108960E94180CCE0141960E9441
:101B6000180C0F900FBE81E005C080E003C080E03C
:101B700001C080E0DF91CF911F910F91FF90EF9016
:101B800008950F931F93CF93DF93282F362F882329
:101B900061F1682F70E08FEF9FEF0E948721832F04
:101BA00090E06817790720F1239FC0011124813E3E
:101BB0004FEF940700F5D32FC22F4F960E94CF0B03
:101BC0008C010097D1F0D11104C0FC019183808376
:101BD00004C04F96F80191838083F801C38FD48F9E
:101BE00061E0C8010E945E0D08C000E010E005C081
:101BF00000E010E002C000E010E0C801DF91CF91EA
:101C00001F910F9108959F92AF92BF92CF92DF9252
:101C1000EF92FF920F931F93CF93DF9300D000D0EA
:101C20001F92CDB7DEB78C016B015D834C83A22E72
:101C3000B12C992493947C0188E0E80EF11C0FB636
:101C4000F8940F92F801928D838D981718F0F2E0B6
:101C5000AF1219C04A2DB601C8010E94AE0CF8019E
:101C60009189992349F0C80141960E943C1B882321
:101C700031F00E94710903C081110E9471090F9017
:101C80000FBE81E050C08C819D81892B21F40F9083
:101C90000FBE80E048C0B11005C0CE0101960E9481
:101CA000B11CB92C0F900FBE0E94E6170FB6F89426
:101CB0000F92F801858D8F3F09F4158EF801868DFE
:101CC0008F3F09F4168E0F900FBEBE016C5F7F4FE1
:101CD000CE0101960E94BC1C81111FC00FB6F89462
:101CE0000F92F801928D0F900FBE838D98130FC045
:101CF0006C817D81C7010E94E41AC8010E94110D08
:101D00000E94251981119BCF0E94710998CFC801AB
:101D10000E94110D0E94251992CFC8010E94110D39
:101D20000E94251980E00F900F900F900F900F9058
:101D3000DF91CF911F910F91FF90EF90DF90CF90A7
:101D4000BF90AF909F900895EF92FF920F931F93D3
:101D5000CF93DF938A01FC01528D338D531710F01E
:101D6000223021F5422F7801EC011E8D8A8DCE01A3
:101D70000E94AE0C1F3F81F489898823C9F0CE01EF
:101D800041960E943C1B8823A9F0E114F104A1F0C4
:101D900081E0F701808313C00E94FB17181770F4CD
:101DA000FF24F394F10EFE8E81E009C080E007C0AD
:101DB00081E005C081E003C081E001C081E0DF91E6
:101DC000CF911F910F91FF90EF900895EF92FF92A6
:101DD0001F93CF93DF93FC01228D338D2317F8F4EB
:101DE0007B01EC01168D2F5F228F1F3F81F48189CB
:101DF0008823B9F0CF0141960E943C1B882399F0BB
:101E0000E114F10491F081E0F701808311C00E9498
:101E1000FB17181760F41F5F1E8F81E009C080E078
:101E200007C081E005C081E003C081E001C081E01E
:101E3000DF91CF911F91FF90EF9008959F92AF9205
:101E4000BF92CF92DF92EF92FF920F931F93CF93A7
:101E5000DF9300D000D01F92CDB7DEB78C015B01BD
:101E60005D834C83E12C992493946C0181E1C80E2D
:101E7000D11C0FB6F8940F92F801F28CFF20A9F054
:101E8000B501C8010E94F70CFA94F801F28E808522
:101E9000882339F0C80108960E943C1B81110E94DA
:101EA00071090F900FBE81E051C08C819D81892BFB
:101EB00021F40F900FBE80E049C0E11005C0CE01B3
:101EC00001960E94B11CE92C0F900FBE0E94E617EC
:101ED0000FB6F8940F92F801858D8F3F09F4158E97
:101EE000F801868D8F3F09F4168E0F900FBEBE014C
:101EF0006C5F7F4FCE0101960E94BC1C81111AC0FD
:101F0000C8010E94A30C882379F06C817D81C601F1
:101F10000E94E41AC8010E94110D0E942519811126
:101F2000A8CF0E947109A5CFC8010E94110D0E947F
:101F300025199FCFC8010E94110D0E942519C801C3
:101F40000E94A30C882309F494CF80E00F900F9097
:101F50000F900F900F90DF91CF911F910F91FF90F5
:101F6000EF90DF90CF90BF90AF909F900895CF9269
:101F7000DF92EF92FF920F931F93CF93DF9300D0E6
:101F800000D01F92CDB7DEB78C017D836C83D12C3E
:101F9000CC24C3947C0181E1E80EF11C0FB6F894C7
:101FA0000F92F801828D882381F08150828F808585
:101FB000882339F0C80108960E943C1B81110E94B9
:101FC00071090F900FBE81E051C08C819D81892BDA
:101FD00021F40F900FBE80E049C0D11005C0CE01A2
:101FE00001960E94B11CDC2C0F900FBE0E94E617D8
:101FF0000FB6F8940F92F801858D8F3F09F4158E76
:10200000F801868D8F3F09F4168E0F900FBEBE012A
:102010006C5F7F4FCE0101960E94BC1C81111AC0DB
:10202000C8010E94A30C882379F06C817D81C701CF
:102030000E94E41AC8010E94110D0E942519811105
:10204000ADCF0E947109AACFC8010E94110D0E9454
:102050002519A4CFC8010E94110D0E942519C8019D
:102060000E94A30C882309F499CF80E00F900F9071
:102070000F900F900F90DF91CF911F910F91FF90D4
:10208000EF90DF90CF900895AF92BF92CF92DF9202
:10209000EF92FF920F931F93CF93DF9300D000D066
:1020A0001F92CDB7DEB78C016B015D834C83B12CE1
:1020B000AA24A3947C0181E1E80EF11C0FB6F894E8
:1020C0000F92F801828D8823B9F0E680F780B6017F
:1020D000C8010E94F70CF801F782E6828189882303
:1020E00039F0C80141960E943C1B81110E94710980
:1020F0000F900FBE81E051C08C819D81892B21F40E
:102100000F900FBE80E049C0B11005C0CE0101960E
:102110000E94B11CBA2C0F900FBE0E94E6170FB69A
:10212000F8940F92F801858D8F3F09F4158EF80110
:10213000868D8F3F09F4168E0F900FBEBE016C5F27
:102140007F4FCE0101960E94BC1C81111AC0C801AC
:102150000E94A30C882379F06C817D81C7010E94C5
:10216000E41AC8010E94110D0E9425198111A6CF01
:102170000E947109A3CFC8010E94110D0E94251968
:102180009DCFC8010E94110D0E942519C8010E940F
:10219000A30C882309F492CF80E00F900F900F904A
:1021A0000F900F90DF91CF911F910F91FF90EF90C3
:1021B000DF90CF90BF90AF900895EF92FF920F9372
:1021C0001F93CF93DF93FC01C28DCC2319F17A01C9
:1021D0008C01D58D0E94F70CC150F801C28FDF3FF2
:1021E00081F480858823C1F0C80108960E943C1BB9
:1021F0008823A1F0E114F10499F081E0F7018083D4
:1022000012C00E94FB17D81768F4DF5FF801D58F62
:1022100081E009C080E007C081E005C081E003C023
:1022200081E001C081E0DF91CF911F910F91FF907C
:10223000EF9008950F931F93CF93DF93FC01228DAE
:10224000222349F0EC01068117810E94F70C1F83BD
:102250000E8381E001C080E0DF91CF911F910F914B
:1022600008950FB6F8940F92FC01828D0F900FBE67
:1022700008950FB6F8940F92FC01228D0F900FBEB7
:10228000838D821B0895FC01828D08950E94090CA4
:102290000895FC01928D81E0911180E00895FC0188
:1022A000928D81E0238D291380E00895FC01448103
:1022B000558122813381240F351F80819181B9019D
:1022C000681B790BCB016417750710F0841B950B05
:1022D0000895AF92BF92CF92DF92EF92FF920F9349
:1022E0001F93CF93DF937C015B01EA016901FC013D
:1022F00004811581021B130B4017510708F48A0152
:10230000F70184859585A801B5018C0D9D1D0E945E
:102310006D220C171D0758F4AE01401B510BB5017F
:10232000600F711FF701848595850E946D22C6019B
:102330008C0F9D1FF701248135818217930710F0C0
:10234000821B930BDF91CF911F910F91FF90EF9024
:10235000DF90CF90BF90AF900895AF92BF92CF9291
:10236000DF92EF92FF920F931F93CF93DF9300D0F2
:10237000CDB7DEB76C015B017A01FC01428153816C
:10238000968590FF10C0FA82E98220173107E0F0AD
:102390009A0142E050E0BE016F5F7F4FC6010E948C
:1023A0006911AC0104C02E153F0508F47901E11450
:1023B000F10461F09A01A701B501C6010E946911FB
:1023C000F6019383828302C0E12CF12CC7010F90A8
:1023D0000F90DF91CF911F910F91FF90EF90DF90C1
:1023E000CF90BF90AF900895AF92BF92CF92DF92FF
:1023F000EF92FF920F931F93CF93DF937C015B01CA
:10240000EA016901FC0104811581021B130B4017CD
:10241000510708F48A01F701648575856C0D7D1DEF
:10242000A801C5010E946D220C171D0758F4AE01CA
:10243000401B510BF70164857585C501800F911F05
:102440000E946D22C6018C0F9D1FF70124813581EA
:102450008217930710F0821B930BDF91CF911F918E
:102460000F91FF90EF90DF90CF90BF90AF900895C5
:10247000AF92BF92CF92DF92EF92FF920F931F9392
:10248000CF93DF9300D0CDB7DEB77C015B016A014B
:102490008901FC0120813181968590FF11C042E0C5
:1024A00050E0BE016F5F7F4FC7010E94F4119C0195
:1024B00089819A81C816D90698F0025011096C01D9
:1024C000C016D10608F486010115110559F0A801BE
:1024D000B501C7010E94F411F7019183808302C006
:1024E00000E010E0C8010F900F90DF91CF911F9195
:1024F0000F91FF90EF90DF90CF90BF90AF90089535
:10250000FF920F931F93CF93DF938B01FF24F394DC
:10251000413009F0F12C0115110511F401E010E032
:102520009C01205F3F4F82179307B8F4EC0121967E
:10253000C9010E94CF0BFC01892B89F08FE0DF01DC
:102540001D928A95E9F7CF010F9695878487D583E9
:10255000C48317830683F68602C0E0E0F0E0CF0173
:10256000DF91CF911F910F91FF900895FC01268577
:1025700021FD03C00E94090C08952FE0FC01119277
:102580002A95E9F708950FB6F8940F92DC01189692
:102590002D913C911997232B51F51A962D913C9131
:1025A0001B97232B31F51E962C911E9716964D9155
:1025B0005C91179714966D917C9115971C96ED91EF
:1025C000FC911D973FE01D923A95E9F7DC011D96BD
:1025D000FC93EE931C9715967C936E931497179625
:1025E0005C934E9316971E962C9381E003C080E077
:1025F00001C080E00F900FBE08956115710511F4C0
:1026000061E070E0FC01248135816217730720F4DA
:102610007783668381E0089580E00895FC0140811E
:102620005181808191816281738120813181421742
:102630005307A9F724813581A90141505109840F1D
:10264000951F861B970B8217930710F0821B930B25
:1026500008950E94561108952F923F924F925F92D3
:102660006F927F928F929F92AF92BF92CF92DF92A2
:10267000EF92FF920F931F93CF93DF9300D000D080
:102680001F92CDB7DEB75C011B012A013D832C836D
:10269000FC01848195810197268520FF0AC03A01BB
:1026A000F2E06F0E711C8615970540F41D821C82A6
:1026B00043C03A018417950708F43C018C819D8141
:1026C000892B09F439C0CE0101960E94A11C0FB6D6
:1026D000F8940F92C5010E940E134C0186159705C0
:1026E00030F560E080E090E00E9433210E94F11C10
:1026F000F501938782870F900FBECC80DD80E12C9F
:10270000F12C00E010E0980140E050E0BA0180E0D8
:102710000E948E1DF50113861286BE016C5F7F4FED
:10272000CE0101960E94BC1C882389F202C00F9042
:102730000FBE8114910421F4C5010E940E134C01B7
:1027400083019401A201B101C5010E94AD116C0188
:10275000892B09F1C5010E945611F50126813781A7
:1027600082179307C0F00E94E617F50180859185D6
:10277000892B79F080859185E12CF12C00E010E027
:1027800020E030E0A90160E00E942F1EF5011186D3
:1027900010860E942519C6010F900F900F900F9080
:1027A0000F90DF91CF911F910F91FF90EF90DF90ED
:1027B000CF90BF90AF909F908F907F906F905F90E1
:1027C0004F903F902F900895AF92BF92CF92DF929B
:1027D000EF92FF920F931F93CF93DF93EC017B0156
:1027E0005A0169018E8580FF04C08A010E5F1F4F68
:1027F00001C08A01CE010E940E139C01A501B70100
:10280000CE010E94AD115C01892BD1F0CE010E9456
:1028100056112E813F818217930790F08885998504
:10282000892B71F088859985E12CF12C00E010E06E
:1028300020E030E0A90160E00E94371F1986188669
:10284000C501DF91CF911F910F91FF90EF90DF9025
:10285000CF90BF90AF9008956F927F928F929F928A
:10286000AF92BF92CF92DF92EF92FF920F931F939E
:10287000CF93DF93EC014B013A0169018E8580FD16
:1028800003C0A12CB12C04C06894AA24A1F8B12CD7
:10289000C114D10451F10FB6F8940F92CE010E94E9
:1028A00056118C01A816B90648F060E080E090E06F
:1028B0000E9433210E94F11C998788870F900FBED8
:1028C000A016B106C8F0E12CF12C00E010E0980150
:1028D00040E050E0BA0180E00E948E1D1986188603
:1028E000CE010E9456118C0104C0CE010E945611E7
:1028F0008C01A016B10600F59801A301B401CE0128
:102900000E9438125C01892BC9F00E94E6178A8563
:102910009B85892B71F08A859B85E12CF12C00E049
:1029200010E020E030E0A90160E00E942F1E1B862D
:102930001A860E94251902C0A12CB12CC501DF9175
:10294000CF911F910F91FF90EF90DF90CF90BF90AC
:10295000AF909F908F907F906F9008950F931F93EB
:10296000CF93DF9300D0CDB7DEB7FC01268520FFE3
:1029700013C08C010E945611039788F0F801208142
:10298000318142E050E0BE016F5F7F4FC8010E947D
:10299000F41189819A8105C080E090E002C080E056
:1029A00090E00F900F90DF91CF911F910F910895BC
:1029B000AF92BF92CF92DF92EF92FF920F931F934D
:1029C000CF93DF93EC015B017A0169018E8580FD75
:1029D00003C000E010E002C002E010E0CE010E945F
:1029E000561108171907E0F49C01A701B501CE01A3
:1029F0000E9438125C01892BA9F08A859B85892B5E
:102A000089F08A859B85E12CF12C00E010E020E024
:102A100030E0A90160E00E94371F1B861A8602C0C1
:102A2000A12CB12CC501DF91CF911F910F91FF9087
:102A3000EF90DF90CF90BF90AF900895FC01408160
:102A400051812281338181E04217530709F080E0F0
:102A50000895CF93DF93FC01268520FD03C0C0E0DD
:102A6000D0E002C0C2E0D0E00E940E1321E0C817FF
:102A7000D90708F420E0822FDF91CF910895CF92FB
:102A8000DF92EF92FF920F931F93CF93DF93FC019E
:102A900020853185232B91F06B01EC018085918598
:102AA000E12CF12C00E010E020E030E0A90160E032
:102AB0000E94371F1986188681E001C080E0DF91EF
:102AC000CF911F910F91FF90EF90DF90CF900895DD
:102AD000CF92DF92EF92FF920F931F93CF93DF93EA
:102AE000FC0122853385232B91F06B01EC0182855B
:102AF0009385E12CF12C00E010E020E030E0A9010A
:102B000060E00E94371F1B861A8681E001C080E0CA
:102B1000DF91CF911F910F91FF90EF90DF90CF90B9
:102B20000895E091AE06F091AF068081811107C053
:102B30008FEF9FEF90938E0680938D060895E0911E
:102B4000AE06F091AF060580F681E02D808191817F
:102B500090938E0680938D0608950F931F93CF93C5
:102B6000DF93EC01009196061091970680918806FC
:102B70009091890602960E947C0CC00FD11FE091B3
:102B80008806F0918906D383C283C017D10768F401
:102B900060918806709189068091AC069091AD068F
:102BA0006E5F7F4F0E944B0C17C06091880670913A
:102BB00089068091AE069091AF066E5F7F4F0E94AE
:102BC0004B0C80918D0690918E06C817D90720F482
:102BD000D0938E06C0938D06DF91CF911F910F91F8
:102BE00008950AE916E00F2EF2ECEF2EF6E0FF2E24
:102BF000F02D80919906882329F10FB6F8940F9251
:102C0000D8011596ED91FC911697C681D781CE011A
:102C100002960E947C0C80919806815080939806C1
:102C2000809199068150809399060F900FBE8F89ED
:102C3000988D0E94090CCE010E94090C8091990682
:102C40008111DBCFF7018081823010F00E94710981
:102C50000E949700CECF4F925F926F927F928F9299
:102C60009F92AF92BF92CF92DF92EF92FF920F931B
:102C70001F93CF93DF934C016B015A012901CA01C5
:102C80000E94CF0B3C01892B09F400C186E290E041
:102C90000E94CF0BEC01892B81F086E2DE011D92B0
:102CA0008A95E9F7788E6F8AB1E0AB1AB108A60C65
:102CB000B71CC114D10429F41EC0C3010E94090C21
:102CC000E5C0F6018081898F8081882399F0AE016B
:102CD000465E5F4F319688E0C80ED11CCF0121912E
:102CE000DA012D93AD01DC018C91882319F0CE1609
:102CF000DF06A1F718A2053008F004E00E8B6E0184
:102D0000B2E0CB0ED11CC6010E94260CCE010C965F
:102D10000E94260CD987C88785E090E0801B910926
:102D20009D878C87DB8BCA8BA201B401C5010E94F1
:102D3000CF0899838883E114F10419F0F701D18356
:102D4000C0830FB6F8940F92809198068F5F80939E
:102D500098068091880690918906892BA9F5D093D1
:102D60008906C0938806809198068130E9F502ECC7
:102D700016E00F2EFFEEEF2EF6E0FF2EF02DC8012D
:102D80000E94180C075F1F4F0E151F05C1F789EB36
:102D900096E00E94180C80EB96E00E94180C83EAE3
:102DA00096E00E94180C8AE996E00E94180C89EBC4
:102DB00096E09093AF068093AE0680EB96E09093FA
:102DC000AD068093AC0610C08091940681110CC0B2
:102DD000E0918806F091890696898E89891720F0FE
:102DE000D0938906C093880680918F068F5F809369
:102DF0008F068E8990919506981710F4809395060A
:102E000090E0FC01EE0FFF1FEE0FFF1FEE0FFF1F04
:102E10008E0F9F1FFC01EE53F94F0180F281E02DD0
:102E2000FD83EC83848195819F838E83A481B5810A
:102E30001396DC92CE921297D582C482EE89F0E08E
:102E4000CF01880F991F880F991F880F991FE80FCE
:102E5000F91FEE53F94FFB87EA8780818F5F8083EC
:102E60000F900FBE80919406882361F0E091880650
:102E7000F091890696898E89981730F40E9471091D
:102E800081E005C081E003C081E001C08FEFDF91E8
:102E9000CF911F910F91FF90EF90DF90CF90BF9057
:102EA000AF909F908F907F906F905F904F9008951C
:102EB0000F931F93CF93DF93EC010FB6F8940F920B
:102EC000892B21F4C0918806D09189068E010E5F6E
:102ED0001F4FC8010E947C0C8C899D89892B21F091
:102EE000CE010C960E947C0C80918F068F5F8093A0
:102EF0008F068091880690918906C817D90759F4E2
:102F0000B8018AE996E00E942A0C809199068F5FA9
:102F10008093990607C08091980681508093980607
:102F20000E9491150F900FBE80918806909189069E
:102F3000C817D90739F08F89988D0E94090CCE01E6
:102F40000E94090C80919406882349F0809188069C
:102F500090918906C817D90711F40E947109DF9171
:102F6000CF911F910F910895EF92FF920F930F2E23
:102F7000FBE8EF2EF6E0FF2EF02D00E020E030E041
:102F800045E550E06BE970E081EF95E10E942B167A
:102F9000813081F4F8948FEF9FEF90938E068093A9
:102FA0008D0681E080939406109297061092960603
:102FB0000E943B09809188000F91FF90EF90089547
:102FC000F894109294060E947009089580918A06E0
:102FD0008F5F80938A0608950FB6F8940F928091C0
:102FE0009606909197060F900FBE089580919606D1
:102FF000909197060895809198060895009721F47E
:10300000809188069091890649960895EF92FF92E3
:103010000F931F93CF93DF9380918A06811104C190
:10302000C0919606D09197067E018FEFE81AF80AB4
:10303000F0929706E0929606E114F104B9F48091BB
:10304000AE069091AF062091AC063091AD0630935C
:10305000AF062093AE069093AD068093AC068091A8
:1030600090068F5F809390060E94911580918D0647
:1030700090918E06E816F90610F480E0B9C080E061
:1030800061E0E091AE06F091AF069081911107C02A
:103090002FEF3FEF30938E0620938D06A9C0E0916D
:1030A000AE06F091AF060580F681E02D0680F7812F
:1030B000E02D22813381E216F30628F430938E0648
:1030C00020938D0695C0A285B385248135814681E4
:1030D0005781E9015D834C83268137814481558185
:1030E000E9015B834A83AF014E5F5F4F11962D91DB
:1030F0003C9112972417350731F4268137811296B7
:103100003C932E931197138612869C9191509C9319
:10311000A489B589109719F1268537850089118909
:10312000E9011D830C832089318906851785E90112
:103130001B830A8311960D911C9112979F01245FA6
:103140003F4F0217130731F42089318912963C93BF
:103150002E931197158A148A9C9191509C932689DD
:1031600090919506921710F42093950630E0D901BE
:10317000AA0FBB1FAA0FBB1FAA0FBB1F2A0F3B1F03
:10318000D901AE53B94F11960D90BC91A02DB583C6
:10319000A48314962D913C9115973783268314961A
:1031A0002D913C911597E9015B834A8315965C93B9
:1031B0004E931497A689B0E09D01220F331F220F72
:1031C000331F220F331FA20FB31FAE53B94FB38764
:1031D000A2879C919F5F9C93A0918806B0918906DD
:1031E000268956969C91921708F04BCF862F49CF8F
:1031F000E0918806F0918906268930E0F901EE0F0A
:10320000FF1FEE0FFF1FEE0FFF1F2E0F3F1FF901D5
:10321000EE53F94F9081923008F081E09091910641
:10322000992361F081E00AC0809192069091930603
:103230000196909393068093920680E0DF91CF9160
:103240001F910F91FF90EF9008951F93CF93DF93FD
:103250000FB6F8940F9280918A06815080938A0667
:1032600080918A068111C6C08091980681119BC009
:10327000C4C0DB011596ED91FC9116970680F7818D
:10328000E02DA489B5898685978520893189EC014F
:103290003D832C838089918926853785EC013B838A
:1032A0002A83CF010C9611962D913C9112972817E5
:1032B000390731F48089918912969C938E931197E6
:1032C000158A148A8C9181508C93A285B385848150
:1032D000958126813781EC013D832C8386819781FE
:1032E00024813581EC013B832A839F012E5F3F4F70
:1032F00011968D919C9112978217930731F48681D4
:10330000978112969C938E931197138612868C91B7
:1033100081508C93868990919506981710F480932C
:10332000950690E0DC01AA0FBB1FAA0FBB1FAA0FD6
:10333000BB1F8A0F9B1FDC01AE53B94F11960D9036
:10334000BC91A02DB583A48314968D919C91159763
:103350009783868314968D919C911597EC013B83FE
:103360002A8315963C932E931497A689B0E0CD013D
:10337000880F991F880F991F880F991FA80FB91FD1
:10338000AE53B94FB387A2878C918F5F8C93A09176
:103390008806B0918906968956968C91891740F4D3
:1033A0004093910605C0E0E0F0E063EA76E041E09A
:1033B000DB018C9181115DCFEF2B11F00E949115F3
:1033C000C0919206D0919306209761F011E00E947F
:1033D00006188111109391062197C9F71092930650
:1033E0001092920680919106882331F00E94710913
:1033F00081E003C080E001C080E00F900FBEDF914C
:10340000CF911F9108950F931F93CF93DF938C015A
:10341000EB010E94E6174091960650919706F8013D
:1034200020813181C9018C0F9D1F4217530778F409
:103430008217930720F5C1E04817590708F0C0E04C
:10344000F801918380834817590768F407C08217F1
:10345000930780F04817590768F011C060E0841B9B
:10346000950B0E94AD150E94251981110DC00E9477
:1034700071090AC0F80191838083C1E0EFCFF801A0
:1034800091838083C0E0EFCF8C2FDF91CF911F918C
:103490000F910895CF93DF93EC01892B51F00E9497
:1034A000E61760E0CE010E94AD150E94251981113A
:1034B00002C00E947109DF91CF910895CF93DF93ED
:1034C000EC010E94E6170FB6F8940F9280919206D5
:1034D00090919306C80FD91FD0939306C09392067C
:1034E0000F900FBE0E942519DF91CF910895809112
:1034F0008A06882321F081E0809391060895109236
:10350000910620919506822F90E0FC01EE0FFF1F9F
:10351000EE0FFF1FEE0FFF1FE80FF91FEE53F94FDD
:103520003081311111C02150822F90E0FC01EE0F4B
:10353000FF1FEE0FFF1FEE0FFF1FE80FF91FEE53E7
:10354000F94F3081332379F3AC01440F551F440FF9
:10355000551F440F551F480F591FFA01EE53F94FDD
:10356000A181B28112966D917C91139772836183D0
:103570004B53594F6417750779F4FC01EE0FFF1F89
:10358000EE0FFF1FEE0FFF1FE80FF91FEE53F94F6D
:103590004581568152834183FC01EE0FFF1FEE0FE0
:1035A000FF1FEE0FFF1F8E0F9F1FFC01EE53F94F01
:1035B0000180F281E02D8681978190938906809326
:1035C0008806209395060895CF93DF93EB016091D1
:1035D000880670918906645F7F4F0E944B0C61E002
:1035E000CE010E94AD15DF91CF910895CF93DF9367
:1035F000FC01A0918806B091890670681D967C93A5
:103600006E931C97A181B281C0918806D0918906E2
:10361000BF87AE87C0918806D091890614968D9198
:103620009C911597998B888B1496CD91DC91159769
:103630002091880630918906245F3F4F3B832A837F
:103640002091880630918906245F3F4F15963C9360
:103650002E931497A0918806B09189065596FC93F5
:10366000EE93549790819F5F908361E0CA010E941E
:10367000AD15DF91CF910895CF93DF93DC011596BF
:10368000ED91FC9116970680F781E02DA489B5890C
:10369000C685D785808991899D838C83C089D1898E
:1036A000868597859B838A839F01245F3F4F119670
:1036B0008D919C9112978217930731F4808991899B
:1036C00012969C938E931197158A148A8C9181502F
:1036D0008C9380918A06811160C0A285B385C481D4
:1036E000D581868197819D838C83C681D781848192
:1036F00095819B838A839F012E5F3F4F11968D9109
:103700009C9112978217930731F4868197811296C4
:103710009C938E931197138612868C9181508C9373
:10372000868990919506981710F48093950690E0FD
:10373000DC01AA0FBB1FAA0FBB1FAA0FBB1F8A0F5A
:103740009B1FDC01AE53B94F11960D90BC91A02D7B
:10375000B583A48314968D919C9115979783868346
:103760001496CD91DC9115973B832A8315963C9353
:103770002E931497A689B0E0CD01880F991F880F6A
:10378000991F880F991FA80FB91FAE53B94FB38760
:10379000A2878C918F5F8C931CC043EA56E0DA01BC
:1037A0001196CD91DC911297D787C6878C819D8128
:1037B000918B808B8C819D81DC0113963C932E93A1
:1037C00012973D832C83558B448BDA018C918F5F4C
:1037D0008C93A0918806B0918906968956968C9113
:1037E000891720F481E08093910601C080E0DF9189
:1037F000CF910895CF93DF93DC01706811967C938D
:103800006E931696ED91FC91179718964D915C91D9
:10381000199712968D919C91139714962D913C9126
:103820001597EC013D832C8314968D919C911597EF
:1038300012962D913C911397EC013B832A83EA0168
:1038400089819A81A817B90731F414968D919C91BA
:1038500015979A83898319961C921E921897DA01FC
:103860008C9181508C93A285B385C481D58186814A
:1038700097819D838C83C681D781848195819B8329
:103880008A839F012E5F3F4F11968D919C911297D5
:103890008217930731F48681978112969C938E93B9
:1038A0001197138612868C9181508C938689909102
:1038B0009506981710F48093950690E0DC01AA0F06
:1038C000BB1FAA0FBB1FAA0FBB1F8A0F9B1FDC01C8
:1038D000AE53B94F11960D90BC91A02DB583A48322
:1038E00014968D919C911597978386831496CD910C
:1038F000DC9115973B832A8315963C932E9314975E
:10390000A689B0E0CD01880F991F880F991F880FF5
:10391000991FA80FB91FAE53B94FB387A2878C91D7
:103920008F5F8C93A0918806B091890696895696F0
:103930008C91891718F481E080939106DF91CF91E3
:1039400008950FB6F8940F9220919006FC01208301
:103950002091960630919706328321830F900FBEF7
:10396000089520919006FC012083209196063091C5
:1039700097063283218308950FB6F8940F92209111
:10398000960630919706DC0111964D915C91129745
:10399000E0919006FC91FE1741F02417350728F0BE
:1039A000FB011182108281E015C0241B350BDB0165
:1039B0004D915C912417350748F4FB01421B530BD2
:1039C000518340830E94B11C80E004C0FB0111823E
:1039D000108281E00F900FBE089581E080939106E0
:1039E000089580918806909189060895E09188064F
:1039F000F091890684859585E0918806F091890685
:103A0000A0918806B091890656964C9125E030E049
:103A1000241B3109358724870895CF92DF92EF92D6
:103A2000FF921F93CF93DF93162F0FB6F8940F9248
:103A3000E0918806F0918906C82FD0E024E0829FAB
:103A4000E00DF11D1124C1A0D2A0E3A0F4A0CD2867
:103A5000CE28CF2889F4E0918806F0918906EC0FF2
:103A6000FD1F81E085A34115510531F061E0CA01D8
:103A70000E94AD150E9471090F900FBE0FB6F89409
:103A80000F92E0918806F0918906CE01880F991F68
:103A9000880F991FE80FF91F61A172A183A194A15A
:103AA000611571058105910541F1112381F0E091C6
:103AB0008806F09189069E01220F331F220F331FC3
:103AC000E20FF31F11A212A213A214A216C0E091DA
:103AD0008806F09189069E01220F331F220F331FA3
:103AE000E20FF31F6B017C0121E0C21AD108E1084B
:103AF000F108C1A2D2A2E3A2F4A2209188063091DB
:103B00008906C20FD31F1DA20F900FBEDF91CF9168
:103B10001F91FF90EF90DF90CF9008958F929F922A
:103B2000AF92BF92CF92DF92EF92FF920F931F93CB
:103B3000CF93DF93480159010FB6F8940F92E091AB
:103B40008806F0918906C82FD0E0EC0FFD1F85A1F3
:103B5000823061F1E0918806F0918906CE01880FEC
:103B6000991F880F991FE80FF91F81A192A1A3A1A6
:103B7000B4A14095509560957095482359236A23C8
:103B80007B2341A352A363A374A3E0918806F09121
:103B90008906EC0FFD1F81E085A3C114D10431F02B
:103BA00061E0C6010E94AD150E9471090F900FBE21
:103BB0000FB6F8940F92E114F104A1F0E091880699
:103BC000F0918906CE01880F991F880F991FE80F81
:103BD000F91F81A192A1A3A1B4A1F70180839183D0
:103BE000A283B383E0918806F0918906EC0FFD1F54
:103BF00085A18230E9F4E0918806F0918906CE0132
:103C0000880F991F880F991FE80FF91F81A192A1B2
:103C1000A3A1B4A180949094A094B09488229922F6
:103C2000AA22BB2281A292A2A3A2B4A281E001C0D7
:103C300080E02091880630918906C20FD31F1DA213
:103C40000F900FBEDF91CF911F910F91FF90EF90DA
:103C5000DF90CF90BF90AF909F908F9008958F92FC
:103C60009F92AF92BF92EF92FF920F931F93CF93C9
:103C7000DF93DC010FB6F8940F92E114F10479F0B0
:103C8000FC0184E0689FE00DF11D112481A092A049
:103C9000A3A0B4A0F70180829182A282B38270E0D7
:103CA000FD01E60FF71F85A192E095A302301105F3
:103CB00011F120F40130110541F04BC00330110522
:103CC00071F104301105B9F144C0660F771F660F1A
:103CD000771FFD01E60FF71F81A092A0A3A0B4A05B
:103CE000BA01A901482959296A297B2941A352A36C
:103CF00063A374A32EC0660F771F660F771FFD01A5
:103D0000E60FF71F41A152A163A174A14F5F5F4F5E
:103D10006F4F7F4F41A352A363A374A31AC0660FD2
:103D2000771F660F771FFD01E60FF71F21A332A350
:103D300043A354A30EC0823009F487C0660F771FD7
:103D4000660F771FFD01E60FF71F21A332A343A3E0
:103D500054A3813009F07BC01A96ED91FC911B971A
:103D60001496CD91DC91159716968D919C9117978D
:103D70009D838C831696CD91DC91179714968D9127
:103D80009C9115979B838A839D012E5F3F4F818174
:103D900092818217930731F416968D919C91179713
:103DA000928381831B961C921E921A978081815068
:103DB000808356968C91569790919506981710F49B
:103DC0008093950690E0FC01EE0FFF1FEE0FFF1FA2
:103DD000EE0FFF1F8E0F9F1FFC01EE53F94F018066
:103DE000F281E02D1596FC93EE93149784819581D2
:103DF00017969C938E931697C481D5813B832A8313
:103E0000358324835696EC915697F0E0CF01880FC6
:103E1000991F880F991F880F991FE80FF91FEE53FC
:103E2000F94F1B96FC93EE931A9780818F5F8083E6
:103E3000E0918806F091890656969C9186898917AB
:103E400040F40E94710981E005C080E003C081E078
:103E500001C081E00F900FBEDF91CF911F910F91B4
:103E6000FF90EF90BF90AF909F908F9008958F92AA
:103E70009F92AF92BF92CF92DF92EF92FF920F93F9
:103E80001F93CF93DF93DC01E114F10479F0FC017F
:103E900084E0689FE00DF11D112481A092A0A3A0F1
:103EA000B4A0F70180829182A282B38270E0FD010A
:103EB000E60FF71F85A192E095A30230110511F1DD
:103EC00020F40130110541F04BC00330110571F1B0
:103ED00004301105B9F144C0660F771F660F771FD4
:103EE000FD01E60FF71F81A092A0A3A0B4A0BA0124
:103EF000A901482959296A297B2941A352A363A30F
:103F000074A32EC0660F771F660F771FFD01E60FA3
:103F1000F71F41A152A163A174A14F5F5F4F6F4F83
:103F20007F4F41A352A363A374A31AC0660F771FE8
:103F3000660F771FFD01E60FF71F21A332A343A3EE
:103F400054A30EC0823009F4B2C0660F771F660F0B
:103F5000771FFD01E60FF71F21A332A343A354A34C
:103F6000813009F0A6C080918A0681116DC01A9631
:103F7000ED91FC911B971496CD91DC9115971696B7
:103F80008D919C9117979D838C831696CD91DC9192
:103F9000179714968D919C9115979B838A839D0109
:103FA0002E5F3F4F818192818217930731F41696DD
:103FB0008D919C911797928381831B961C921E92E0
:103FC0001A9780818150808356968C915697909154
:103FD0009506981710F48093950690E0FC01EE0F7B
:103FE000FF1FEE0FFF1FEE0FFF1F8E0F9F1FFC0125
:103FF000EE53F94F0180F281E02D1596FC93EE937C
:1040000014978481958117969C938E931697C481FB
:10401000D5813B832A83358324835696EC9156972A
:10402000F0E0CF01880F991F880F991F880F991F03
:10403000E80FF91FEE53F94F1B96FC93EE931A9776
:1040400080818F5F808320C043EA56E0FA01C181FE
:10405000D2811F96DC93CE931E978C819D815196C1
:104060009C938E9350972C813D81CD010C96F90144
:10407000938382839D838C8355965C934E93549750
:10408000FA0180818F5F8083E0918806F091890634
:1040900056969C918689891770F4C114D10419F041
:1040A00081E0F601808381E08093910605C080E085
:1040B00003C081E001C081E0DF91CF911F910F919A
:1040C000FF90EF90DF90CF90BF90AF909F908F9038
:1040D00008950F931F93CF93DF93DC01E62FF0E059
:1040E000EC01CE0FDF1F8DA192E09DA3EE0FFF1F0D
:1040F000EE0FFF1FEA0FFB1F01A112A123A134A1A4
:104100000F5F1F4F2F4F3F4F01A312A323A334A3D1
:10411000813009F0A3C080918A0681116DC01A9682
:10412000ED91FC911B971496CD91DC911597169605
:104130008D919C9117979D838C831696CD91DC91E0
:10414000179714968D919C9115979B838A839D0157
:104150002E5F3F4F818192818217930731F416962B
:104160008D919C911797928381831B961C921E922E
:104170001A9780818150808356968C9156979091A2
:104180009506981710F48093950690E0FC01EE0FC9
:10419000FF1FEE0FFF1FEE0FFF1F8E0F9F1FFC0173
:1041A000EE53F94F0180F281E02D1596FC93EE93CA
:1041B00014978481958117969C938E931697C4814A
:1041C000D5813B832A83358324835696EC91569779
:1041D000F0E0CF01880F991F880F991F880F991F52
:1041E000E80FF91FEE53F94F1B96FC93EE931A97C5
:1041F00080818F5F808320C063EA76E0FB01C1810C
:10420000D2811F96DC93CE931E978C819D8151960F
:104210009C938E9350972C813D81CD010C96F90192
:10422000938382839D838C8355967C936E9354975E
:10423000FB0180818F5F8083E0918806F091890681
:1042400056969C918689891748F44115510519F0B5
:1042500081E0FA01808381E080939106DF91CF9124
:104260001F910F910895009721F4809188069091F5
:1042700089060FB6F8940F9270E0FC01E60FF71F65
:1042800025A1223031F4FC01E60FF71F15A281E0D1
:1042900001C080E00F900FBE0895CF92DF92EF92A1
:1042A000FF920F931F93009721F4809188069091BD
:1042B00089060FB6F8940F92FC0174E0679FE00D39
:1042C000F11D112461A172A183A194A1C1A0D2A06A
:1042D000E3A0F4A089019A010095109520953095EE
:1042E0000C211D212E213F2101A312A323A334A3BE
:1042F0000F900FBE1F910F91FF90EF90DF90CF9026
:1043000008958FB78F778FBF0E94F3060895AA1B79
:10431000BB1B51E107C0AA1FBB1FA617B70710F0B0
:10432000A61BB70B881F991F5A95A9F780959095E2
:10433000BC01CD01089597FB072E16F4009407D019
:1043400077FD09D00E94872107FC05D03EF49095A7
:1043500081959F4F0895709561957F4F0895A1E2D3
:104360001A2EAA1BBB1BFD010DC0AA1FBB1FEE1FEF
:10437000FF1FA217B307E407F50720F0A21BB30B3A
:10438000E40BF50B661F771F881F991F1A9469F7B6
:1043900060957095809590959B01AC01BD01CF0112
:1043A0000895A29FB001B39FC001A39F700D811D0E
:1043B0001124911DB29F700D811D1124911D08952E
:1043C000689401C0E8948F929F92CF93DF930E94EC
:1043D000EE21DF91CF919F908F90089588249924AA
:1043E000F401E401B0E49F93AA279A158B049C047E
:1043F000ED05FE05CF05D007A10798F4AD2FDC2F02
:10440000CF2FFE2FE92D982C892E982F872F762FCE
:10441000652F542F432F322F2227B85031F7BF91E9
:1044200027C01B2EBF91BB27220F331F441F551FD0
:10443000661F771F881F991F881C991CEE1FFF1F7E
:10444000CC1FDD1FAA1FBB1F8A149B04EC05FD05B2
:10445000CE05DF05A007B10748F08A189B08EC09D4
:10446000FD09CE09DF09A00BB10B21601A94E1F61A
:104470002EF49401AF01BE01CD01000C08950F93FD
:10448000083090F0982F872F762F652F542F432FC9
:10449000322F22270850F4CF220F331F441F551FFD
:1044A000661F771F881F991F0A95B2F70F9108950D
:1044B0002A0D3B1D4C1D5D1D6E1D7F1D801F911F14
:1044C00008950024A7FD00942A17300540055005E3
:1044D00060057005800590050895FB01DC0102C0B0
:1044E00001900D9241505040D8F70895DC01CB0166
:1044F000FC01E199FECF06C0FFBBEEBBE09A31960E
:104500000DB20D9241505040B8F70895262FE19911
:10451000FECF9FBB8EBB2DBB0FB6F894E29AE19AFB
:0A4520000FBE01960895F894FFCF36
:10452A000000010107000000000000001F0A0E0041
:10453A0000040A011F00000007041F000404040409
:10454A000000000000000000043F065B4F666D7D1E
:10455A00077F6F546F675F6C65640049444C450080
:00000001FF
