:100000000C942A000C94F2060C941B070C944407E1
:100010000C9447000C9447000C9447000C94470044
:100020000C9447000C9447000C9447000C94470034
:100030000C9447000C9447000C9447000C94470024
:100040000C9447000C9447000C9447000C94470014
:100050000C94470011241FBECFE5D8E0DEBFCDBF12
:1000600010E0A0E6B0E0E6E6F0E102C005900D92F7
:10007000A639B107D9F720E0A6E9B0E001C01D928A
:10008000A03BB207E1F70E944E000C9431080C949B
:10009000000080E690E00E943A0108950E946D07FA
:1000A00080E690E00E94F30040E062E083E00E947E
:1000B000FE0341E062E083E00E9499040E94E206B0
:1000C00069E470E080E090E00E94EA06FFCF40E043
:1000D00060E083E00E94FE0341E061E083E00E9473
:1000E000FE030E94F60508950E94FF0508950E94F0
:1000F00003060895CF93DF93EC0141E06981888185
:100100000E94FE0341E06A8188810E94FE0341E073
:10011000698188810E94FE0341E06A8188810E9492
:10012000FE0340E0698188810E94990440E06A8171
:1001300088810E94990440E06B8188810E94990423
:1001400040E06C8188810E949904DF91CF910895ED
:100150000F931F93CF93DF938C01EC01C60FD71F32
:1001600041E06981FC0180810E94990440E06B813B
:10017000F80180810E949904DF91CF911F910F9126
:1001800008950F931F93CF93DF938C01EC01C60F5B
:10019000D71F40E06981FC0180810E94990441E001
:1001A0006B81F80180810E949904DF91CF911F91AA
:1001B0000F9108950F931F93CF93DF938C01EC0160
:1001C000C60FD71F40E06B81FC0180810E9499041B
:1001D00040E06981F80180810E949904DF91CF910C
:1001E0001F910F910895CF93DF93EC0141E0698156
:1001F00088810E94FE038A819B818130910531F4C0
:1002000040E0698188810E94990407C0892B29F404
:1002100041E0698188810E949904DF91CF9108951E
:10022000FC01228133812130310531F441E06181CB
:1002300080810E9499040895232B31F440E0FC0151
:10024000618180810E9499040895FC01228133819B
:100250002130310531F440E0618180810E949904B0
:100260000895232B31F441E0FC01618180810E94DB
:1002700099040895FC01618180810E943A050895E6
:1002800040E060E080E00E94FE030E943A0608958C
:1002900080E090E00E944F060E9443060E944506BF
:1002A0009C01A0E0BAE00E94950726EF37E240E00B
:1002B00050E00E947307CA01B901089540E061E06F
:1002C00080E00E94FE030E943A06089581E090E0DB
:1002D0000E944F060E9443060E944506BC0180E032
:1002E00090E00895682F82E00E94DE0340E061E024
:1002F00083E00E94990441E060E083E00E94990459
:1003000041E062E083E00E94990488EE93E00E945D
:10031000B50640E062E083E00E94990488EE93E035
:100320000E94B5060895682F82E00E94DE0340E037
:1003300061E083E00E94990440E060E083E00E9475
:10034000990441E062E083E00E94990488EE93E022
:100350000E94B50640E062E083E00E94990488EEC6
:1003600093E00E94B50608956FEF82E00E94BE03FD
:1003700041E061E083E00E94FE0341E060E083E051
:100380000E94FE0341E062E083E00E94FE0360E51C
:1003900073EC80E090E00E94B50688E30E94930130
:1003A00088EE93E00E94B5068EE00E94930188EEED
:1003B00093E00E94B50681E00E94930188EB9BE0E8
:1003C0000E94B50682E00E94930188EB9BE00E94A8
:1003D000B50608950F931F93CF93FC018081882366
:1003E00059F08F01C0E00E947201CF5FF801EC0F5D
:1003F000F11D80818111F7CFCF911F910F91089549
:100400002F923F924F925F926F927F928F929F9224
:10041000AF92BF92CF92DF92EF92FF920F931F9312
:10042000CF93DF93CDB7DEB728970FB6F894DEBF32
:100430000FBECDBF29833A834B835C836D837E835C
:10044000382E292EA0E00E94250821F480E30E9486
:100450007201BDC044244394512C612C712C812C19
:10046000912C18861F82242D352D462D572D682D51
:10047000792D88859F8101E00E940308822E932EAA
:1004800048875F83B62FA72FF82FE92F02E00E943D
:100490000308A22EB32EC42ED52EE62EF72E082F3B
:1004A000192F282D392D48855F816B2F7A2F8F2F9B
:1004B0009E2F0E941C0828873F83942E852E762E1F
:1004C000672E582E492E0F2EFAE0AF2EF02DB12CAC
:1004D000C12CD12CE12CF12C00E010E029813A81D3
:1004E0004B815C816D817E81832D922D0E94A407BA
:1004F000A884BF80C92CD82CE72CF62C052D142DF0
:100500000E941C08422E532E642E752E862E972E86
:1005100088879F830F2EFAE0AF2EF02DB12CC12CCF
:10052000D12CE12CF12C00E010E029813A814B81A3
:100530005C816D817E81832D922D0E94A607298387
:100540003A834B835C836D837E83382E292EA0E013
:100550000E94250809F087CF242D352D462D572DD3
:10056000682D792D88859F81A1E00E94250879F169
:100570000F2EFAE0AF2EF02DB12CC12CD12CE12C96
:10058000F12C00E010E0242D352D462D572D682D3F
:10059000792D88859F810E94A40780E3820F0E94A5
:1005A0007201242D352D462D572D682D792D8885E6
:1005B0009F810E94A607422E532E642E752E862EF2
:1005C000972E88879F83A1E00E94250889F62896A8
:1005D0000FB6F894DEBF0FBECDBFDF91CF911F9154
:1005E0000F91FF90EF90DF90CF90BF90AF909F90D2
:1005F0008F907F906F905F904F903F902F900895D5
:10060000813029F48FE7860F0E949301089582308C
:1006100021F48FEB860F0E9493010895EF92FF92D1
:100620000F931F93CF93DF93F82EE62E80E40E9462
:100630009301C4E6D0E00CE810E089910E947201B9
:100640000C171D07D1F76E2D8F2D0E940003C0E0FF
:100650008C2F0E947201CF5FC530D1F7DF91CF910F
:100660001F910F91FF90EF90089581E00E949301F8
:1006700088EE93E00E94B506089588E00E949301F9
:1006800088EE93E00E94B5060895CF93C72F41E00E
:10069000692F0E94FE036FEF8C2F0E94BE03CF9143
:1006A0000895613029F441E0692F0E94990408956A
:1006B000611104C040E0692F0E94990408956130DF
:1006C00029F440E0692F0E9499040895611104C043
:1006D00041E0692F0E9499040895613051F4E42F9C
:1006E000F0E0E457FF4F60816095872F0E94DE03A2
:1006F0000895611108C0E42FF0E0E457FF4F6081D6
:10070000872F0E94DE030895CF93DF93EC0140E032
:10071000698188810E94FE038A819B81892B31F443
:1007200041E0698188810E94990405C040E06981A7
:1007300088810E949904DF91CF9108950F931F93B0
:10074000CF93DF931F92CDB7DEB78C011982AE0134
:100750004F5F5F4FFC01618180810E94AC05F80111
:1007600082819381892B19F48981809501C08981C7
:100770000F90DF91CF911F910F9108958430C0F4B5
:10078000813051F028F0823059F0833069F013C085
:100790006ABB81E090E0089567BB81E090E0089536
:1007A00064BB81E090E0089561BB81E090E0089532
:1007B00080E090E0089580E090E008958430C0F4F7
:1007C000813051F028F0823059F0833069F013C045
:1007D0006BBB81E090E0089568BB81E090E00895F4
:1007E00065BB81E090E0089562BB81E090E00895F0
:1007F00080E090E0089580E090E00895843008F073
:1008000086C0813039F138F0823009F442C083303B
:1008100009F45EC07FC0413069F42AB381E090E002
:1008200002C0880F991F6A95E2F7822B8ABB81E08C
:1008300090E00895411171C02AB381E090E002C0B8
:10084000880F991F6A95E2F7809582238ABB81E021
:1008500090E00895413069F427B381E090E002C050
:10086000880F991F6A95E2F7822B87BB81E090E0A1
:100870000895411155C027B381E090E002C0880F70
:10088000991F6A95E2F78095822387BB81E090E00B
:100890000895413069F424B381E090E002C0880FEC
:1008A000991F6A95E2F7822B84BB81E090E008955E
:1008B000411139C024B381E090E002C0880F991F34
:1008C0006A95E2F78095822384BB81E090E00895E9
:1008D000413069F421B381E090E002C0880F991F94
:1008E0006A95E2F7822B81BB81E090E00895411187
:1008F0001DC021B381E090E002C0880F991F6A9566
:10090000E2F78095822381BB81E090E0089580E04A
:1009100090E0089580E090E0089580E090E00895F0
:1009200080E090E0089580E090E0089580E090E01D
:100930000895843008F089C0683008F089C081309B
:1009400039F138F0823009F442C0833009F45EC0D6
:1009500082C0413069F42BB381E090E002C0880F7F
:10096000991F6A95E2F7822B8BBB81E090E0089596
:10097000411174C02BB381E090E002C0880F991F31
:100980006A95E2F7809582238BBB81E090E0089521
:10099000413069F428B381E090E002C0880F991FCC
:1009A0006A95E2F7822B88BB81E090E008954111BF
:1009B00058C028B381E090E002C0880F991F6A9563
:1009C000E2F78095822388BB81E090E00895413072
:1009D00069F425B381E090E002C0880F991F6A9501
:1009E000E2F7822B85BB81E090E0089541113CC085
:1009F00025B381E090E002C0880F991F6A95E2F765
:100A00008095822385BB81E090E00895413069F4B0
:100A100022B381E090E002C0880F991F6A95E2F747
:100A2000822B82BB81E090E00895411120C022B367
:100A300081E090E002C0880F991F6A95E2F78095E7
:100A4000822382BB81E090E0089580E090E00895E9
:100A500080E090E0089580E090E0089580E090E0EC
:100A6000089580E090E0089580E090E0089580E0AF
:100A700090E008958430F8F5683008F03FC0813088
:100A800099F028F08230E9F0833041F13AC02BB37D
:100A900081E090E002C0880F991F6A95E2F78227F3
:100AA0008BBB81E090E0089528B381E090E002C024
:100AB000880F991F6A95E2F7822788BB81E090E052
:100AC000089525B381E090E002C0880F991F6A95D0
:100AD000E2F7822785BB81E090E0089522B381E0B0
:100AE00090E002C0880F991F6A95E2F7822782BBC7
:100AF00081E090E0089580E090E0089580E090E04B
:100B0000089580E090E00895843000F5813061F030
:100B100028F0823079F0833099F01BC089B3FB0153
:100B2000808381E090E0089586B3FB01808381E0BB
:100B300090E0089583B3FB01808381E090E0089505
:100B400080B3FB01808381E090E0089580E090E035
:100B5000089580E090E008958430F8F5683008F05A
:100B60003FC0813099F028F08230E9F0833041F1C4
:100B70003AC089B390E002C0959587956A95E2F7EF
:100B80008170FA01808381E090E0089586B390E05F
:100B900002C0959587956A95E2F78170FA01808386
:100BA00081E090E0089583B390E002C09595879529
:100BB0006A95E2F78170FA01808381E090E0089500
:100BC00080B390E002C0959587956A95E2F78170B1
:100BD000FA01808381E090E0089580E090E008953C
:100BE00080E090E0089580E090E008951BB888E1EF
:100BF0008AB986E880BD83E389B910BC08955F9BFC
:100C0000FECF8CB108958CB95E9BFECF5D9BFECF6D
:100C100008951F93CF93DF93C0E0D1E010E006C0AA
:100C2000EC2FF0E0E456FF4F9083CF5F0E94FF056A
:100C30009D2F8D3009F4912F8D3091F78CE990E044
:100C4000DF91CF911F9108950F931F93CF93FC01D4
:100C50008081882359F08F01C0E0CF5F0E94030696
:100C6000F801EC0FF11D80818111F7CFCF911F9119
:100C70000F910895379A86B1876086B93F9A87B1F8
:100C800087B93D980895369A0895349BFECF84B174
:100C9000811101C085B1349A80E090E0089597B148
:100CA000907E97B997B1892B87B9089597B1907EB7
:100CB00097B997B1892B87B90895359A089590B758
:100CC0009F7190BF90B78295880F807E982B90BFC0
:100CD00008951FBC82E08EBD08950F931F938B0172
:100CE0009C010130110581E028073105F8F0B901B8
:100CF000A8011DBC1CBC08B602FEFDCF88B78460ED
:100D000088BF615071094130510581E06807710564
:100D100080F7D901C8010197A140B1098827992717
:100D200021503109081B190B2A0B3B0B011511052A
:100D300081E02807310530F41195019511091DBD99
:100D40000CBD07C0011511052140310511F41DBC72
:100D50001CBC08B602FEFDCF88B7846088BF1F9117
:100D60000F91089582E083BF08950F931F938B0125
:100D70009C016F3F710581059105F1F0E8F0AB0131
:100D8000BC0112BE08B600FEFDCF88B7816088BFE7
:100D90005150610971094F3F51056105710509F015
:100DA00080F711272227332707C008B600FEFDCFA2
:100DB00088B7816088BF03C0019502BFF6CF1F913D
:100DC0000F9108951BBE85B7826085BF8BB7806485
:100DD0008BBF0895880F991FFC01EA56FF4F71835E
:100DE000608308951F920F920FB60F9211242F93D4
:100DF0003F934F935F936F937F938F939F93AF93A3
:100E0000BF93EF93FF93E0919600F0919700309796
:100E100009F00995FF91EF91BF91AF919F918F914B
:100E20007F916F915F914F913F912F910F900FBEE6
:100E30000F901F9018951F920F920FB60F921124CA
:100E40002F933F934F935F936F937F938F939F93D2
:100E5000AF93BF93EF93FF93E0919800F0919900C7
:100E6000309709F00995FF91EF91BF91AF919F9154
:100E70008F917F916F915F914F913F912F910F9043
:100E80000FBE0F901F9018951F920F920FB60F92E2
:100E900011242F933F934F935F936F937F938F937F
:100EA0009F93AF93BF93EF93FF93E0919A00F091DC
:100EB0009B00309709F00995FF91EF91BF91AF9199
:100EC0009F918F917F916F915F914F913F912F9162
:100ED0000F900FBE0F901F9018958FB780688FBF2F
:100EE0000E94B2060895A1E21A2EAA1BBB1BFD01A7
:100EF0000DC0AA1FBB1FEE1FFF1FA217B307E407F9
:100F0000F50720F0A21BB30BE40BF50B661F771F50
:100F1000881F991F1A9469F7609570958095909530
:100F20009B01AC01BD01CF010895A29FB001B39F09
:100F3000C001A39F700D811D1124911DB29F700DE2
:100F4000811D1124911D0895689401C0E8948F9229
:100F50009F92CF93DF930E94B207DF91CF919F9032
:100F60008F90089588249924F401E401B0E49F93BC
:100F7000AA279A158B049C04ED05FE05CF05D00722
:100F8000A10798F4AD2FDC2FCF2FFE2FE92D982C41
:100F9000892E982F872F762F652F542F432F322F8E
:100FA0002227B85031F7BF9127C01B2EBF91BB2716
:100FB000220F331F441F551F661F771F881F991F5D
:100FC000881C991CEE1FFF1FCC1FDD1FAA1FBB1F13
:100FD0008A149B04EC05FD05CE05DF05A007B107CB
:100FE00048F08A189B08EC09FD09CE09DF09A00B1F
:100FF000B10B21601A94E1F62EF49401AF01BE0109
:10100000CD01000C08950F93083090F0982F872F92
:10101000762F652F542F432F322F22270850F4CFDD
:10102000220F331F441F551F661F771F881F991FEC
:101030000A95B2F70F9108952A0D3B1D4C1D5D1DB9
:101040006E1D7F1D801F911F08950024A7FD009431
:101050002A1730054005500560057005800590058C
:061060000895F894FFCF93
:101066000000010000000101070000000000000070
:101076001F0A0E0000040A011F00000007041F00DB
:101086000404040400000000000000003F065B4F5B
:06109600666D7D077F6F0F
:00000001FF
