:100000000C942A000C948B070C94B4070C94DD0715
:100010000C9447000C9447000C9447000C94470044
:100020000C9447000C9447000C9447000C94470034
:100030000C9447000C9447000C9447000C94470024
:100040000C9447000C9447000C9447000C94470014
:100050000C94470011241FBECFE5D8E0DEBFCDBF12
:1000600010E0A0E6B0E0E4E8F3E102C005900D92F4
:10007000A23AB107D9F720E0A2EAB0E001C01D9290
:10008000AC3BB207E1F70E9449000C94C0090C9404
:1000900000000E94D4080E94F3010E9409040E94FB
:1000A000770105E910E00F2EF2E9EF2EF0E0FF2EC8
:1000B000F02D68010E947F01C62F61E081E00E945F
:1000C0004703C8010E94310261E082E00E944703B9
:1000D00089E990E00E9431022C2F30E040E050E0AE
:1000E00060E070E080E090E00E944702CE3120F4B2
:1000F0000E9443048601DECFC83738F064E680E012
:1001000090E00E9420048701D5CFCA3538F06BE417
:1001100080E090E00E9420048701CCCFCC3338F0FF
:1001200062E380E090E00E9420048701C3CF69E190
:1001300080E090E00E9420048701BCCF40E060E0B6
:1001400083E00E948E0441E061E083E00E948E041F
:100150000E94860608950E948F0608950E949306C5
:100160000895CF93DF93EC0141E0698188810E947B
:100170008E0441E06A8188810E948E0441E0698199
:1001800088810E948E0441E06A8188810E948E04E9
:1001900040E0698188810E94290540E06A81888168
:1001A0000E94290540E06B8188810E94290540E07A
:1001B0006C8188810E942905DF91CF9108950F936A
:1001C0001F93CF93DF938C01EC01C60FD71F41E043
:1001D0006981FC0180810E94290540E06B81F80162
:1001E00080810E942905DF91CF911F910F91089581
:1001F0000F931F93CF93DF938C01EC01C60FD71F92
:1002000040E06981FC0180810E94290541E06B8109
:10021000F80180810E942905DF91CF911F910F91F4
:1002200008950F931F93CF93DF938C01EC01C60FBA
:10023000D71F40E06B81FC0180810E94290540E0CE
:100240006981F80180810E942905DF91CF911F917A
:100250000F910895CF93DF93EC0141E0698188818C
:100260000E948E048A819B818130910531F440E0A7
:10027000698188810E94290507C0892B29F441E002
:10028000698188810E942905DF91CF910895FC0141
:10029000228133812130310531F441E06181808157
:1002A0000E9429050895232B31F440E0FC0161816F
:1002B00080810E9429050895FC012281338121302B
:1002C000310531F440E0618180810E942905089563
:1002D000232B31F441E0FC01618180810E942905DA
:1002E0000895FC01618180810E94CA05089540E063
:1002F00060E080E00E948E040E94CA06089580E0BB
:1003000090E00E94DF060E94D3060E94D5069C0161
:10031000A0E0BAE00E94100926EF37E240E050E08A
:100320000E94EE08CA01B901089540E061E080E052
:100330000E948E040E94CA06089581E090E00E9407
:10034000DF060E94D3060E94D506BC0180E090E043
:100350000895682F82E00E946E0440E061E083E02F
:100360000E94290541E060E083E00E94290541E008
:1003700062E083E00E94290568EE73E080E090E08F
:100380000E94FD0640E062E083E00E94290568EEDD
:1003900073E080E090E00E94FD060895682F82E0FF
:1003A0000E946E0440E061E083E00E94290540E085
:1003B00060E083E00E94290541E062E083E00E9462
:1003C000290568EE73E080E090E00E94FD0640E0C1
:1003D00062E083E00E94290568EE73E080E090E02F
:1003E0000E94FD0608956FEF82E00E944E0441E0F6
:1003F00061E083E00E948E0441E060E083E00E94BF
:100400008E0441E062E083E00E948E0460E573ECBC
:1004100080E090E00E94FD0688E30E94CE0168EE35
:1004200073E080E090E00E94FD068EE00E94CE0125
:1004300068EE73E080E090E00E94FD0681E00E949B
:10044000CE0168EB7BE080E090E00E94FD0682E058
:100450000E94CE0168EB7BE080E090E00E94FD0608
:1004600008950F931F93CF93FC018081882359F047
:100470008F01C0E00E94A901CF5FF801EC0FF11DD0
:1004800080818111F7CFCF911F910F9108952F9205
:100490003F924F925F926F927F928F929F92AF9214
:1004A000BF92CF92DF92EF92FF920F931F93CF9361
:1004B000DF93CDB7DEB728970FB6F894DEBF0FBE37
:1004C000CDBF29833A834B835C836D837E83382E33
:1004D000292EA0E00E94A00921F480E30E94A90136
:1004E000BDC044244394512C612C712C812C912C3F
:1004F00018861F82242D352D462D572D682D792DD8
:1005000088859F8101E00E947E09822E932E488774
:100510005F83B62FA72FF82FE92F02E00E947E09F4
:10052000A22EB32EC42ED52EE62EF72E082F192F6D
:10053000282D392D48855F816B2F7A2F8F2F9E2F85
:100540000E94970928873F83942E852E762E672E4A
:10055000582E492E0F2EFAE0AF2EF02DB12CC12CC3
:10056000D12CE12CF12C00E010E029813A814B8163
:100570005C816D817E81832D922D0E941F09A8844C
:10058000BF80C92CD82CE72CF62C052D142D0E94E9
:100590009709422E532E642E752E862E972E88870D
:1005A0009F830F2EFAE0AF2EF02DB12CC12CD12C51
:1005B000E12CF12C00E010E029813A814B815C8133
:1005C0006D817E81832D922D0E94210929833A839A
:1005D0004B835C836D837E83382E292EA0E00E949E
:1005E000A00909F087CF242D352D462D572D682DD4
:1005F000792D88859F81A1E00E94A00979F10F2EB5
:10060000FAE0AF2EF02DB12CC12CD12CE12CF12C25
:1006100000E010E0242D352D462D572D682D792D25
:1006200088859F810E941F0980E3820F0E94A90193
:10063000242D352D462D572D682D792D88859F81A8
:100640000E942109422E532E642E752E862E972E3F
:1006500088879F83A1E00E94A00989F628960FB69B
:10066000F894DEBF0FBECDBFDF91CF911F910F91E8
:10067000FF90EF90DF90CF90BF90AF909F908F90C2
:100680007F906F905F904F903F902F9008958130B2
:1006900029F48FE7860F0E94CE010895823021F45D
:1006A0008FEB860F0E94CE010895EF92FF920F9379
:1006B0001F93CF93DF93F82EE62E80E40E94CE01A5
:1006C000C0E6D0E008E810E089910E94A9010C176B
:1006D0001D07D1F76E2D8F2D0E944703C0E08C2F90
:1006E0000E94A901CF5FC530D1F7DF91CF911F9153
:1006F0000F91FF90EF90089581E00E94CE0168EE87
:1007000073E080E090E00E94FD06089588E00E947A
:10071000CE0168EE73E080E090E00E94FD0608954F
:10072000CF93C72F41E0692F0E948E046FEF8C2F6B
:100730000E944E04CF910895613029F441E0692F61
:100740000E9429050895611104C040E0692F0E94AC
:1007500029050895613029F440E0692F0E94290598
:100760000895611104C041E0692F0E942905089590
:10077000613051F4E42FF0E0E857FF4F608160955D
:10078000872F0E946E040895611108C0E42FF0E0E5
:10079000E857FF4F6081872F0E946E040895CF9322
:1007A000DF93EC0140E0698188810E948E048A8198
:1007B0009B81892B31F441E0698188810E94290560
:1007C00005C040E0698188810E942905DF91CF91B1
:1007D00008950F931F93CF93DF931F92CDB7DEB78A
:1007E0008C011982AE014F5F5F4FFC0161818081F6
:1007F0000E943C06F80182819381892B19F489813A
:10080000809501C089810F90DF91CF911F910F9149
:1008100008950E94420741E060E081E00E948E045A
:1008200041E061E081E00E948E0440E060E081E010
:100830000E94290540E061E081E00E9429050895B9
:10084000CF93DF93EC01862F0E947207209719F057
:10085000219761F015C041E060E081E00E94290528
:1008600040E061E081E00E9429050AC040E060E0CC
:1008700081E00E94290541E061E081E00E942905B4
:10088000DF91CF91089540E060E081E00E9429056A
:1008900040E060E081E00E94290508958430C0F4C2
:1008A000813051F028F0823059F0833069F013C064
:1008B0006ABB81E090E0089567BB81E090E0089515
:1008C00064BB81E090E0089561BB81E090E0089511
:1008D00080E090E0089580E090E008958430C0F4D6
:1008E000813051F028F0823059F0833069F013C024
:1008F0006BBB81E090E0089568BB81E090E00895D3
:1009000065BB81E090E0089562BB81E090E00895CE
:1009100080E090E0089580E090E00895843008F051
:1009200086C0813039F138F0823009F442C083301A
:1009300009F45EC07FC0413069F42AB381E090E0E1
:1009400002C0880F991F6A95E2F7822B8ABB81E06B
:1009500090E00895411171C02AB381E090E002C097
:10096000880F991F6A95E2F7809582238ABB81E000
:1009700090E00895413069F427B381E090E002C02F
:10098000880F991F6A95E2F7822B87BB81E090E080
:100990000895411155C027B381E090E002C0880F4F
:1009A000991F6A95E2F78095822387BB81E090E0EA
:1009B0000895413069F424B381E090E002C0880FCB
:1009C000991F6A95E2F7822B84BB81E090E008953D
:1009D000411139C024B381E090E002C0880F991F13
:1009E0006A95E2F78095822384BB81E090E00895C8
:1009F000413069F421B381E090E002C0880F991F73
:100A00006A95E2F7822B81BB81E090E00895411165
:100A10001DC021B381E090E002C0880F991F6A9544
:100A2000E2F78095822381BB81E090E0089580E029
:100A300090E0089580E090E0089580E090E00895CF
:100A400080E090E0089580E090E0089580E090E0FC
:100A50000895843008F089C0683008F089C081307A
:100A600039F138F0823009F442C0833009F45EC0B5
:100A700082C0413069F42BB381E090E002C0880F5E
:100A8000991F6A95E2F7822B8BBB81E090E0089575
:100A9000411174C02BB381E090E002C0880F991F10
:100AA0006A95E2F7809582238BBB81E090E0089500
:100AB000413069F428B381E090E002C0880F991FAB
:100AC0006A95E2F7822B88BB81E090E0089541119E
:100AD00058C028B381E090E002C0880F991F6A9542
:100AE000E2F78095822388BB81E090E00895413051
:100AF00069F425B381E090E002C0880F991F6A95E0
:100B0000E2F7822B85BB81E090E0089541113CC063
:100B100025B381E090E002C0880F991F6A95E2F743
:100B20008095822385BB81E090E00895413069F48F
:100B300022B381E090E002C0880F991F6A95E2F726
:100B4000822B82BB81E090E00895411120C022B346
:100B500081E090E002C0880F991F6A95E2F78095C6
:100B6000822382BB81E090E0089580E090E00895C8
:100B700080E090E0089580E090E0089580E090E0CB
:100B8000089580E090E0089580E090E0089580E08E
:100B900090E008958430F8F5683008F03FC0813067
:100BA00099F028F08230E9F0833041F13AC02BB35C
:100BB00081E090E002C0880F991F6A95E2F78227D2
:100BC0008BBB81E090E0089528B381E090E002C003
:100BD000880F991F6A95E2F7822788BB81E090E031
:100BE000089525B381E090E002C0880F991F6A95AF
:100BF000E2F7822785BB81E090E0089522B381E08F
:100C000090E002C0880F991F6A95E2F7822782BBA5
:100C100081E090E0089580E090E0089580E090E029
:100C2000089580E090E00895843000F5813061F00F
:100C300028F0823079F0833099F01BC089B3FB0132
:100C4000808381E090E0089586B3FB01808381E09A
:100C500090E0089583B3FB01808381E090E00895E4
:100C600080B3FB01808381E090E0089580E090E014
:100C7000089580E090E008958430F8F5683008F039
:100C80003FC0813099F028F08230E9F0833041F1A3
:100C90003AC089B390E002C0959587956A95E2F7CE
:100CA0008170FA01808381E090E0089586B390E03E
:100CB00002C0959587956A95E2F78170FA01808365
:100CC00081E090E0089583B390E002C09595879508
:100CD0006A95E2F78170FA01808381E090E00895DF
:100CE00080B390E002C0959587956A95E2F7817090
:100CF000FA01808381E090E0089580E090E008951B
:100D000080E090E0089580E090E008951BB888E1CD
:100D10008AB986E880BD83E389B910BC08955F9BDA
:100D2000FECF8CB108958CB95E9BFECF5D9BFECF4C
:100D300008951F93CF93DF93C0E0D1E010E006C089
:100D4000EC2FF0E0E855FF4F9083CF5F0E948F06B5
:100D50009D2F8D3009F4912F8D3091F788EA90E026
:100D6000DF91CF911F9108950F931F93CF93FC01B3
:100D70008081882359F08F01C0E0CF5F0E949306E5
:100D8000F801EC0FF11D80818111F7CFCF911F91F8
:100D90000F910895379A86B1876086B93F9A87B1D7
:100DA00087B93D980895369A0895349BFECF84B153
:100DB000811101C085B1349A80E090E0089597B127
:100DC000907E97B997B1892B87B9089597B1907E96
:100DD00097B997B1892B87B90895359A089590B737
:100DE0009F7190BF90B78295880F807E982B90BF9F
:100DF00008951FBC82E08EBD08950F931F938B0151
:100E00009C010130110581E028073105F8F0B90196
:100E1000A8011DBC1CBC08B602FEFDCF88B78460CB
:100E200088BF615071094130510581E06807710543
:100E300080F7D901C8010197A140B10988279927F6
:100E400021503109081B190B2A0B3B0B0115110509
:100E500081E02807310530F41195019511091DBD78
:100E60000CBD07C0011511052140310511F41DBC51
:100E70001CBC08B602FEFDCF88B7846088BF1F91F6
:100E80000F91089583E683BF08950F931F938B01FD
:100E90009C016F3F710581059105F1F0E8F0AB0110
:100EA000BC0112BE08B600FEFDCF88B7816088BFC6
:100EB0005150610971094F3F51056105710509F0F4
:100EC00080F711272227332707C008B600FEFDCF81
:100ED00088B7816088BF03C0019502BFF6CF1F911C
:100EE0000F910895982F80E064E670E00E94DA0880
:100EF00061506CBF08951BBE85B7826085BF8BB7FC
:100F000080648BBF0895880F991FFC01EE55FF4F39
:100F10007183608308951F920F920FB60F92112470
:100F20002F933F934F935F936F937F938F939F93F1
:100F3000AF93BF93EF93FF93E091A200F091A300D2
:100F4000309709F00995FF91EF91BF91AF919F9173
:100F50008F917F916F915F914F913F912F910F9062
:100F60000FBE0F901F9018951F920F920FB60F9201
:100F700011242F933F934F935F936F937F938F939E
:100F80009F93AF93BF93EF93FF93E091A400F091F1
:100F9000A500309709F00995FF91EF91BF91AF91AE
:100FA0009F918F917F916F915F914F913F912F9181
:100FB0000F900FBE0F901F9018951F920F920FB6B3
:100FC0000F9211242F933F934F935F936F937F93CF
:100FD0008F939F93AF93BF93EF93FF93E091A600FE
:100FE000F091A700309709F00995FF91EF91BF911B
:100FF000AF919F918F917F916F915F914F913F91B1
:101000002F910F900FBE0F901F90189581B181B94D
:1010100087E480B984E086BF089584EA86BF06B677
:1010200007FEFDCF91B1987F21E030E0903111F0C3
:1010300020E030E0C901089584EA86BF06B607FEC5
:10104000FDCF91B1987F21E030E0983011F020E0A1
:1010500030E0C901089584E986BF0895880F862B82
:1010600083B984EC86BF06B607FEFDCF81B1887FC9
:10107000883111F4662351F081B1887F803449F4BE
:1010800081E090E0613039F080E0089581E090E007
:10109000089580E090E0089512B884E886BF06B60F
:1010A00007FEFDCF089583B984EC86BF06B607FE20
:1010B000FDCF91B1987F21E030E0983211F020E02F
:1010C00030E0C9010895FC0194E896BF06B607FE1A
:1010D000FDCF91B1987F983529F483B1808381E069
:1010E00090E0089580E090E00895FC0194EC96BFB4
:1010F00006B607FEFDCF91B1987F903529F483B1F4
:10110000808381E090E0089580E090E0089584E09D
:1011100086BF8BEA82B984E886BF089506B607FECB
:10112000FDCF81B1887F883A41F021B1287F81E0ED
:1011300090E0203621F080E0089581E090E008956D
:1011400083B984EC86BF06B607FEFDCF91B1987FC8
:1011500021E030E0983B11F020E030E0C901089533
:10116000FC0194EC96BF06B607FEFDCF91B1987FC7
:10117000983729F483B1808381E090E0089580E07E
:1011800090E00895FC0194E896BF06B607FEFDCFF7
:1011900091B1987F983829F483B1808381E090E001
:1011A000089580E090E008958FB78F778FBF0E94F9
:1011B000F906089597FB072E16F4009407D077FDE3
:1011C00009D00E94AC0907FC05D03EF490958195AA
:1011D0009F4F0895709561957F4F0895A1E21A2E53
:1011E000AA1BBB1BFD010DC0AA1FBB1FEE1FFF1FCB
:1011F000A217B307E407F50720F0A21BB30BE40B1B
:10120000F50B661F771F881F991F1A9469F7609561
:101210007095809590959B01AC01BD01CF0108951B
:10122000A29FB001B39FC001A39F700D811D112427
:10123000911DB29F700D811D1124911D0895689418
:1012400001C0E8948F929F92CF93DF930E942D0963
:10125000DF91CF919F908F90089588249924F40175
:10126000E401B0E49F93AA279A158B049C04ED0532
:10127000FE05CF05D007A10798F4AD2FDC2FCF2FA7
:10128000FE2FE92D982C892E982F872F762F652FEA
:10129000542F432F322F2227B85031F7BF9127C048
:1012A0001B2EBF91BB27220F331F441F551F661FE4
:1012B000771F881F991F881C991CEE1FFF1FCC1FCA
:1012C000DD1FAA1FBB1F8A149B04EC05FD05CE057C
:1012D000DF05A007B10748F08A189B08EC09FD0953
:1012E000CE09DF09A00BB10B21601A94E1F62EF4B0
:1012F0009401AF01BE01CD01000C08950F93083099
:1013000090F0982F872F762F652F542F432F322F51
:1013100022270850F4CF220F331F441F551F661F8A
:10132000771F881F991F0A95B2F70F9108952A0D0C
:101330003B1D4C1D5D1D6E1D7F1D801F911F08955F
:101340000024A7FD00942A173005400550056005CC
:101350007005800590050895AA1BBB1B51E107C0CD
:10136000AA1FBB1FA617B70710F0A61BB70B881F35
:10137000991F5A95A9F780959095BC01CD010895C4
:04138000F894FFCF0F
:101384000000010107000000000000001F0A0E0019
:1013940000040A011F00000007041F0004040404E1
:1013A40000000000000000003F065B4F666D7D07F3
:1013B4007F6F4F4E004F46460054656D70203D20B0
:0213C400000027
:00000001FF
