:100000000C942A000C9490070C94B9070C94E20706
:100010000C9447000C9447000C9447000C94300A51
:100020000C9447000C9447000C9447000C94470034
:100030000C9447000C9447000C9447000C94470024
:100040000C9447000C9447000C9447000C94470014
:100050000C94470011241FBECFE5D8E0DEBFCDBF12
:1000600010E0A0E6B0E0ECEFF4E402C005900D92E1
:10007000A03BB107D9F727E0A0EBB0E001C01D928B
:10008000A830B207E1F70E9449000C947C220C943E
:1000900000000E9487210E94F7010E940D040E9427
:1000A0007B0106E910E00F2EF3E9EF2EF0E0FF2EC2
:1000B000F02D68010E948301C62F61E081E00E945B
:1000C0004B038AE990E00E943502C8010E94350284
:1000D00061E082E00E944B0382EA90E00E943502D8
:1000E0002C2F30E040E050E060E070E080E090E0F5
:1000F0000E944B02CE3120F40E9447048601DACFE1
:10010000C83738F064E680E090E00E94240487015C
:10011000D1CFCA3538F06BE480E090E00E9424042F
:100120008701C8CFCC3338F062E380E090E00E94D2
:1001300024048701BFCF69E180E090E00E9424049D
:100140008701B8CF40E060E083E00E94920441E084
:1001500061E083E00E9492040E948A0608950E9452
:10016000930608950E9497060895CF93DF93EC01BC
:1001700041E0698188810E94920441E06A8188811E
:100180000E94920441E0698188810E94920441E0CA
:100190006A8188810E94920440E0698188810E947E
:1001A0002D0540E06A8188810E942D0540E06B8129
:1001B00088810E942D0540E06C8188810E942D0578
:1001C000DF91CF9108950F931F93CF93DF938C010D
:1001D000EC01C60FD71F41E06981FC0180810E94BC
:1001E0002D0540E06B81F80180810E942D05DF9193
:1001F000CF911F910F9108950F931F93CF93DF938A
:100200008C01EC01C60FD71F40E06981FC018081A1
:100210000E942D0541E06B81F80180810E942D052F
:10022000DF91CF911F910F9108950F931F93CF935B
:10023000DF938C01EC01C60FD71F40E06B81FC01FE
:1002400080810E942D0540E06981F80180810E9433
:100250002D05DF91CF911F910F910895CF93DF93DB
:10026000EC0141E0698188810E9492048A819B812E
:100270008130910531F440E0698188810E942D052B
:1002800007C0892B29F441E0698188810E942D05EE
:10029000DF91CF910895FC01228133812130310516
:1002A00031F441E0618180810E942D050895232B66
:1002B00031F440E0FC01618180810E942D050895A8
:1002C000FC01228133812130310531F440E061812C
:1002D00080810E942D050895232B31F441E0FC011B
:1002E000618180810E942D050895FC0161818081DA
:1002F0000E94CE05089540E060E080E00E949204F4
:100300000E94CE06089580E090E00E94E3060E94DD
:10031000D7060E94D9069C01A0E0BAE00E94D7212E
:1003200026EF37E240E050E00E94B521CA01B90152
:10033000089540E061E080E00E9492040E94CE06B1
:10034000089581E090E00E94E3060E94D7060E9493
:10035000D906BC0180E090E00895682F82E00E94F9
:10036000720440E061E083E00E942D0541E060E01E
:1003700083E00E942D0541E062E083E00E942D05AC
:1003800068EE73E080E090E00E94010740E062E0E8
:1003900083E00E942D0568EE73E080E090E00E940B
:1003A00001070895682F82E00E94720440E061E036
:1003B00083E00E942D0540E060E083E00E942D056F
:1003C00041E062E083E00E942D0568EE73E080E08A
:1003D00090E00E94010740E062E083E00E942D056A
:1003E00068EE73E080E090E00E94010708956FEFEF
:1003F00082E00E94520441E061E083E00E949204A6
:1004000041E060E083E00E94920441E062E083E02A
:100410000E94920460E573EC80E090E00E94010786
:1004200088E30E94D20168EE73E080E090E00E94D1
:1004300001078EE00E94D20168EE73E080E090E058
:100440000E94010781E00E94D20168EB7BE080E01E
:1004500090E00E94010782E00E94D20168EB7BE0FD
:1004600080E090E00E94010708950F931F93CF93BF
:10047000FC018081882359F08F01C0E00E94AD010A
:10048000CF5FF801EC0FF11D80818111F7CFCF9183
:100490001F910F9108952F923F924F925F926F920A
:1004A0007F928F929F92AF92BF92CF92DF92EF9204
:1004B000FF920F931F93CF93DF93CDB7DEB72897AB
:1004C0000FB6F894DEBF0FBECDBF29833A834B83AE
:1004D0005C836D837E83382E292EA0E00E946722E4
:1004E00021F480E30E94AD01BDC044244394512C0B
:1004F000612C712C812C912C18861F82242D352D76
:10050000462D572D682D792D88859F8101E00E9409
:100510004522822E932E48875F83B62FA72FF82F70
:10052000E92F02E00E944522A22EB32EC42ED52E22
:10053000E62EF72E082F192F282D392D48855F819B
:100540006B2F7A2F8F2F9E2F0E945E2228873F834A
:10055000942E852E762E672E582E492E0F2EFAE0D9
:10056000AF2EF02DB12CC12CD12CE12CF12C00E0C0
:1005700010E029813A814B815C816D817E81832DE0
:10058000922D0E94E621A884BF80C92CD82CE72C8C
:10059000F62C052D142D0E945E22422E532E642E21
:1005A000752E862E972E88879F830F2EFAE0AF2E0A
:1005B000F02DB12CC12CD12CE12CF12C00E010E05D
:1005C00029813A814B815C816D817E81832D922DC1
:1005D0000E94E82129833A834B835C836D837E8369
:1005E000382E292EA0E00E94672209F087CF242D03
:1005F000352D462D572D682D792D88859F81A1E0B9
:100600000E94672279F10F2EFAE0AF2EF02DB12C67
:10061000C12CD12CE12CF12C00E010E0242D352D43
:10062000462D572D682D792D88859F810E94E621C2
:1006300080E3820F0E94AD01242D352D462D572DCC
:10064000682D792D88859F810E94E821422E532EA6
:10065000642E752E862E972E88879F83A1E00E9498
:10066000672289F628960FB6F894DEBF0FBECDBF7D
:10067000DF91CF911F910F91FF90EF90DF90CF907E
:10068000BF90AF909F908F907F906F905F904F90B2
:100690003F902F900895813029F48FE7860F0E94B4
:1006A000D2010895823021F48FEB860F0E94D2018F
:1006B0000895EF92FF920F931F93CF93DF93F82E3D
:1006C000E62E80E40E94D201C0E6D0E008E810E007
:1006D00089910E94AD010C171D07D1F76E2D8F2D4A
:1006E0000E944B03C0E08C2F0E94AD01CF5FC5304C
:1006F000D1F7DF91CF911F910F91FF90EF90089567
:1007000081E00E94D20168EE73E080E090E00E94F8
:100710000107089588E00E94D20168EE73E080E04E
:1007200090E00E9401070895CF93C72F41E0692F01
:100730000E9492046FEF8C2F0E945204CF91089573
:10074000613029F441E0692F0E942D05089561115F
:1007500004C040E0692F0E942D050895613029F4FE
:1007600040E0692F0E942D050895611104C041E009
:10077000692F0E942D050895613051F4E42FF0E0B7
:10078000E757FF4F60816095872F0E94720408959C
:10079000611108C0E42FF0E0E757FF4F6081872F19
:1007A0000E9472040895CF93DF93EC0140E06981C9
:1007B00088810E9492048A819B81892B31F441E0D7
:1007C000698188810E942D0505C040E0698188818A
:1007D0000E942D05DF91CF9108950F931F93CF9322
:1007E000DF931F92CDB7DEB78C011982AE014F5F48
:1007F0005F4FFC01618180810E944006F801828187
:100800009381892B19F48981809501C089810F908A
:10081000DF91CF911F910F9108950E94460741E00B
:1008200060E081E00E94920441E061E081E00E948A
:10083000920440E060E081E00E942D0540E061E02C
:1008400081E00E942D050895CF93DF93EC01862F60
:100850000E947607209719F0219761F015C041E0BA
:1008600060E081E00E942D0540E061E081E00E94AF
:100870002D050AC040E060E081E00E942D0541E0C6
:1008800061E081E00E942D05DF91CF91089540E065
:1008900060E081E00E942D0540E060E081E00E9480
:1008A0002D0508958430C0F4813051F028F0823055
:1008B00059F0833069F013C06ABB81E090E008957D
:1008C00067BB81E090E0089564BB81E090E008950B
:1008D00061BB81E090E0089580E090E0089580E0C1
:1008E00090E008958430C0F4813051F028F08230D7
:1008F00059F0833069F013C06BBB81E090E008953C
:1009000068BB81E090E0089565BB81E090E00895C8
:1009100062BB81E090E0089580E090E0089580E07F
:1009200090E00895843008F086C0813039F138F0C5
:10093000823009F442C0833009F45EC07FC0413088
:1009400069F42AB381E090E002C0880F991F6A958C
:10095000E2F7822B8ABB81E090E00895411171C0DB
:100960002AB381E090E002C0880F991F6A95E2F7F0
:10097000809582238ABB81E090E00895413069F43C
:1009800027B381E090E002C0880F991F6A95E2F7D3
:10099000822B87BB81E090E00895411155C027B3B9
:1009A00081E090E002C0880F991F6A95E2F7809578
:1009B000822387BB81E090E00895413069F424B33D
:1009C00081E090E002C0880F991F6A95E2F7822BC0
:1009D00084BB81E090E00895411139C024B381E0E7
:1009E00090E002C0880F991F6A95E2F780958223F4
:1009F00084BB81E090E00895413069F421B381E047
:100A000090E002C0880F991F6A95E2F7822B81BBA4
:100A100081E090E0089541111DC021B381E090E094
:100A200002C0880F991F6A95E2F78095822381BBE7
:100A300081E090E0089580E090E0089580E090E00B
:100A4000089580E090E0089580E090E0089580E0CF
:100A500090E0089580E090E00895843008F089C027
:100A6000683008F089C0813039F138F0823009F4FB
:100A700042C0833009F45EC082C0413069F42BB3B8
:100A800081E090E002C0880F991F6A95E2F7822BFF
:100A90008BBB81E090E00895411174C02BB381E0DD
:100AA00090E002C0880F991F6A95E2F78095822333
:100AB0008BBB81E090E00895413069F428B381E078
:100AC00090E002C0880F991F6A95E2F7822B88BBDD
:100AD00081E090E00895411158C028B381E090E092
:100AE00002C0880F991F6A95E2F78095822388BB20
:100AF00081E090E00895413069F425B381E090E011
:100B000002C0880F991F6A95E2F7822B85BB81E0AE
:100B100090E0089541113CC025B381E090E002C00F
:100B2000880F991F6A95E2F78095822385BB81E043
:100B300090E00895413069F422B381E090E002C072
:100B4000880F991F6A95E2F7822B82BB81E090E0C3
:100B50000895411120C022B381E090E002C0880FC7
:100B6000991F6A95E2F78095822382BB81E090E02D
:100B7000089580E090E0089580E090E0089580E09E
:100B800090E0089580E090E0089580E090E008957E
:100B900080E090E0089580E090E008958430F8F5DA
:100BA000683008F03FC0813099F028F08230E9F0D9
:100BB000833041F13AC02BB381E090E002C0880F4E
:100BC000991F6A95E2F782278BBB81E090E0089538
:100BD00028B381E090E002C0880F991F6A95E2F780
:100BE000822788BB81E090E0089525B381E090E002
:100BF00002C0880F991F6A95E2F7822785BB81E0C2
:100C000090E0089522B381E090E002C0880F991F20
:100C10006A95E2F7822782BB81E090E0089580E048
:100C200090E0089580E090E0089580E090E00895DD
:100C3000843000F5813061F028F0823079F0833023
:100C400099F01BC089B3FB01808381E090E0089597
:100C500086B3FB01808381E090E0089583B3FB01BC
:100C6000808381E090E0089580B3FB01808381E080
:100C700090E0089580E090E0089580E090E008958D
:100C80008430F8F5683008F03FC0813099F028F0E2
:100C90008230E9F0833041F13AC089B390E002C07C
:100CA000959587956A95E2F78170FA01808381E0D6
:100CB00090E0089586B390E002C0959587956A9577
:100CC000E2F78170FA01808381E090E0089583B3B8
:100CD00090E002C0959587956A95E2F78170FA01D8
:100CE000808381E090E0089580B390E002C0959504
:100CF00087956A95E2F78170FA01808381E090E040
:100D0000089580E090E0089580E090E0089580E00C
:100D100090E008951BB888E18AB986E880BD83E336
:100D200089B910BC08955F9BFECF8CB108958CB932
:100D30005E9BFECF5D9BFECF08951F93CF93DF9305
:100D4000C0E0D1E010E006C0EC2FF0E0EC50F94F2D
:100D50009083CF5F0E9493069D2F8D3009F4912FD1
:100D60008D3091F784EF96E0DF91CF911F91089538
:100D70000F931F93CF93FC018081882359F08F013B
:100D8000C0E0CF5F0E949706F801EC0FF11D808153
:100D90008111F7CFCF911F910F910895379A86B1A6
:100DA000876086B93F9A87B187B93D980895369A8A
:100DB0000895349BFECF84B1811101C085B1349A6E
:100DC00080E090E0089597B1907E97B997B1892B14
:100DD00087B9089597B1907E97B997B1892B87B954
:100DE0000895359A089590B79F7190BF90B78295F6
:100DF000880F807E982B90BF08951FBC82E08EBD27
:100E000008950F931F938B019C010130110581E020
:100E100028073105F8F0B901A8011DBC1CBC08B6B3
:100E200002FEFDCF88B7846088BF615071094130F0
:100E3000510581E06807710580F7D901C801019764
:100E4000A140B1098827992721503109081B190BA6
:100E50002A0B3B0B0115110581E02807310530F401
:100E60001195019511091DBD0CBD07C00115110596
:100E70002140310511F41DBC1CBC08B602FEFDCF9B
:100E800088B7846088BF1F910F91089583E683BF60
:100E900008950F931F938B019C016F3F710581058E
:100EA0009105F1F0E8F0AB01BC0112BE08B600FEFE
:100EB000FDCF88B7816088BF5150610971094F3FEC
:100EC00051056105710509F080F7112722273327A5
:100ED00007C008B600FEFDCF88B7816088BF03C099
:100EE000019502BFF6CF1F910F91089512BE982F62
:100EF00080E064E670E00E94A12161506CBF08951B
:100F00001BBE85B7826085BF8BB780648BBF089599
:100F1000880F991FFC01E055FF4F7183608308958E
:100F20001F920F920FB60F9211242F933F934F935E
:100F30005F936F937F938F939F93AF93BF93EF9341
:100F4000FF93E091B000F091B100309709F009955E
:100F5000FF91EF91BF91AF919F918F917F916F9191
:100F60005F914F913F912F910F900FBE0F901F9067
:100F700018951F920F920FB60F9211242F933F9343
:100F80004F935F936F937F938F939F93AF93BF9391
:100F9000EF93FF93E091B200F091B300309709F026
:100FA0000995FF91EF91BF91AF919F918F917F91A3
:100FB0006F915F914F913F912F910F900FBE0F90C6
:100FC0001F9018951F920F920FB60F9211242F9316
:100FD0003F934F935F936F937F938F939F93AF93C1
:100FE000BF93EF93FF93E091B400F091B500309779
:100FF00009F00995FF91EF91BF91AF919F918F916A
:101000007F916F915F914F913F912F910F900FBE04
:101010000F901F90189581B181B987E480B984E061
:1010200086BF089584EA86BF06B607FEFDCF91B15C
:10103000987F21E030E0903111F020E030E0C901EC
:10104000089584EA86BF06B607FEFDCF91B1987F6A
:1010500021E030E0983011F020E030E0C90108953F
:1010600084E986BF0895880F862B83B984EC86BFF8
:1010700006B607FEFDCF81B1887F883111F4662363
:1010800051F081B1887F803449F481E090E0613093
:1010900039F080E0089581E090E0089580E090E0EC
:1010A000089512B884E886BF06B607FEFDCF0895FE
:1010B00083B984EC86BF06B607FEFDCF91B1987F59
:1010C00021E030E0983211F020E030E0C9010895CD
:1010D000FC0194E896BF06B607FEFDCF91B1987F5C
:1010E000983529F483B1808381E090E0089580E011
:1010F00090E00895FC0194EC96BF06B607FEFDCF84
:1011000091B1987F903529F483B1808381E090E09C
:10111000089580E090E0089584E086BF8BEA82B96C
:1011200084E886BF089506B607FEFDCF81B1887FAB
:10113000883A41F021B1287F81E090E0203621F00B
:1011400080E0089581E090E0089583B984EC86BF43
:1011500006B607FEFDCF91B1987F21E030E0983BC5
:1011600011F020E030E0C9010895FC0194EC96BF35
:1011700006B607FEFDCF91B1987F983729F483B169
:10118000808381E090E0089580E090E00895FC0184
:1011900094E896BF06B607FEFDCF91B1987F9838C8
:1011A00029F483B1808381E090E0089580E090E0AD
:1011B000089531E1FC013083319722E22083319799
:1011C000A3E3A083319760833197708331971082B6
:1011D000319760E8608331971082319762E06083D5
:1011E000319763E06083319764E06083319765E015
:1011F0006083319766E06083319767E06083319761
:1012000068E06083319769E06083319760E16083D3
:1012100031973083319732E13083319733E1308336
:10122000319734E13083319735E13083319736E1BE
:101230003083319737E13083319738E1308331970C
:1012400039E13083319730E23083319731E23083B6
:1012500031972083319723E2208331974083319760
:101260005083319726E22083319727E220833197FC
:1012700028E22083319729E22083319720E32083DD
:10128000319721E32083869708951BBC8CE78ABDA4
:101290008BE08EBD89B7806189BFA0919606B09121
:1012A0009706CD91CDBFDD91DEBFFF91EF91DF912C
:1012B000CF91BF91AF919F918F917F916F915F91EE
:1012C0004F913F912F911F910F91FF90EF90DF90E1
:1012D000CF90BF90AF909F908F907F906F905F90D6
:1012E0004F903F902F901F900F900FBE0F9008953A
:1012F00081E0089508950F920FB6F8940F921F920F
:1013000011242F923F924F925F926F927F928F9211
:101310009F92AF92BF92CF92DF92EF92FF920F9384
:101320001F932F933F934F935F936F937F938F936D
:101330009F93AF93BF93CF93DF93EF93FF93A091CE
:101340009606B09197060DB60D920EB60D920E94BC
:101350007D1AA0919606B0919706CD91CDBFDD91F3
:10136000DEBFFF91EF91DF91CF91BF91AF919F9140
:101370008F917F916F915F914F913F912F911F912D
:101380000F91FF90EF90DF90CF90BF90AF909F9024
:101390008F907F906F905F904F903F902F901F9015
:1013A0000F900FBE0F9008950F920FB6F8940F9202
:1013B0001F9211242F923F924F925F926F927F92D1
:1013C0008F929F92AF92BF92CF92DF92EF92FF9255
:1013D0000F931F932F933F934F935F936F937F933D
:1013E0008F939F93AF93BF93CF93DF93EF93FF932D
:1013F000A0919606B09197060DB60D920EB60D927D
:101400000E940C1881110E947D1AA0919606B0913D
:101410009706CD91CDBFDD91DEBFFF91EF91DF91BA
:10142000CF91BF91AF919F918F917F916F915F917C
:101430004F913F912F911F910F91FF90EF90DF906F
:10144000CF90BF90AF909F908F907F906F905F9064
:101450004F903F902F901F900F900FBE0F900895C8
:101460000E94D4091895CF93DF938BE090E00E94FF
:10147000D90BEC01009731F0FC0111921192CF01D0
:101480000E94220CCE01DF91CF910895AF92BF92BE
:10149000CF92DF92EF92FF920F931F93CF93DF9340
:1014A0007C016B01A42EB22E0E94EC17F701C081C3
:1014B000D181B11008C081E09E012C213D21232B58
:1014C00051F480E008C081E09E012C213D212C15C3
:1014D0003D0509F080E0882361F0AA2009F450C09E
:1014E000B601609570956C237D23F701718360834D
:1014F00047C00115110509F443C0AA2019F060E0A6
:1015000071E002C060E070E0B11074606C297D2968
:10151000A801C70102960E94FC1A0E942B19811192
:1015200002C00E947B090E94FC1C91FD26C00FB6E0
:10153000F8940F92F70180819181B11008C021E0E9
:10154000A60148235923452B51F420E008C021E08F
:10155000A601482359234C155D0509F020E02223FC
:1015600051F0AA2041F0B601609570956823792367
:10157000F701718360830F900FBEEC01DD2702C07D
:101580000E942B19CE01DF91CF911F910F91FF90F7
:10159000EF90DF90CF90BF90AF900895FC010FB611
:1015A000F8940F92808191816095709568237923DA
:1015B000718360830F900FBE0895FC01808191813B
:1015C0000895AF92BF92CF92DF92EF92FF920F9366
:1015D0001F93CF93DF937C018B01EC0125960E9432
:1015E000EC17D7011796ED91FC9118978D919C916E
:1015F0001197082B192B0D931C93CE17DF07A1F120
:1016000000E010E0BB24B394A12CC280D380808181
:1016100091819C01332792FD0AC0D7016D917C9185
:10162000622373234B2D672B61F44A2D0AC0D70127
:101630006D917C91622373234B2D6217730709F020
:101640004A2D442359F090FF02C0022B132BD701DF
:101650006D917C917260CF010E94001CEC2DFD2DDC
:10166000CE17DF0791F602C000E010E0009510955C
:10167000F7018081918108231923118300830E943F
:101680002B19D7018D919C91DF91CF911F910F91D3
:10169000FF90EF90DF90CF90BF90AF900895AF9202
:1016A000BF92CF92DF92EF92FF920F931F93CF934F
:1016B000DF938C01EB017A0169010E94EC17F801BC
:1016C000A080B180BE01C8010E94E10ACA29DB29BD
:1016D000CE018E219F21E816F90659F4A701409505
:1016E0005095F801E080F1804E215F2151834083C5
:1016F00031C0C114D10461F0A601B7017560C80101
:1017000002960E94FC1A0E942B19811107C004C086
:10171000F801C081D1811EC00E947B090E94FC1C7F
:1017200091FD15C00FB6F8940F92F8018081918158
:10173000970128233923E216F30639F4A7014095CF
:10174000509548235923518340830F900FBEEC01DD
:10175000DD2702C00E942B19CE01DF91CF911F918E
:101760000F91FF90EF90DF90CF90BF90AF900895D2
:10177000CF93DF93EC010E94EC178A81882349F014
:1017800060E072E08F8198850E94001C8A8181113F
:10179000F7CF0E942B19CE010E94130CDF91CF913D
:1017A0000895BA010E94E10A0895BA010E94CE0A82
:1017B0000895CF93DF93EC010E94EC178091B6005F
:1017C0009091B700892B31F48AEB90E09093B700A9
:1017D0008093B6002097C9F08091B8009091B9002D
:1017E0009E01280F391F2B3D45E0340788F48217EE
:1017F000930788F4C091B600D091B700C80FD91FE5
:101800003093B9002093B80008C0C0E0D0E005C014
:10181000C0E0D0E002C0C0E0D0E00E942B19CE01B1
:10182000DF91CF91089508951092B9001092B800F9
:1018300008952091B8003091B9008BED95E0821B9E
:10184000930B0895FC010396928381832FEF3FEF62
:1018500034832383968385839087878310820895BA
:10186000FC01118610860895CF93DF939C01FB0144
:10187000DC011196CD91DC911297D383C2838C81C8
:101880009D81958384838C819D81DC0113967C935B
:101890006E9312977D836C8331872087F901808155
:1018A0008F5F8083DF91CF910895CF93DF93EB011A
:1018B000488159814F3F2FEF520721F4FC01A78146
:1018C000B0850DC0DC01139601C0DF011296ED91C9
:1018D000FC9113972081318142175307B0F712967C
:1018E000ED91FC911397FB83EA83D583C483BD8379
:1018F000AC831396DC93CE93129799878887FC016B
:1019000020812F5F2083DF91CF910895CF93DF93C4
:10191000FC01A085B185C281D381848195819D839D
:101920008C83C481D581828193819B838A83119624
:101930008D919C911297E817F90731F48481958174
:1019400012969C938E931197118610868C918150DC
:101950008C938C91DF91CF9108950FB6F8940F92EC
:10196000FC01928D0F900FBE81E0911180E00895EF
:101970000F931F93CF93DF93EC01042F1A8D4C8D9F
:101980004423B9F1011116C050E08A819B810E9465
:1019900073222C8D8A819B81820F911D9B838A8368
:1019A0002C813D818217930720F1888199819B8347
:1019B0008A831FC050E08E819F810E9473228C8D8C
:1019C00090E09195819591092E813F81280F391FD3
:1019D0003F832E83488159812417350730F42C81A9
:1019E0003D81820F931F9F838E83023011F411116A
:1019F00011501F5F1A8F80E0DF91CF911F910F91DF
:101A00000895FC01448D4423A9F050E026813781DC
:101A1000240F351F37832683848195812817390742
:101A200020F08081918197838683CB0166817781C5
:101A30000E9473220895EF92FF920F931F93CF930A
:101A40008C010FB6F8940F92FC01C68D1C16ACF4F5
:101A50008189811106C011C0F8018189811105C0F9
:101A60000CC07801F1E1EF0EF11CC7010E94421B8E
:101A700081110E94F31CC15079F78FEFF801868F16
:101A80000F900FBE0FB6F8940F92C58D1C16ACF4D4
:101A90008085811106C011C0F8018085811105C0C3
:101AA0000CC07801F8E0EF0EF11CC7010E94421B48
:101AB00081110E94F31CC15079F78FEFF801858FD7
:101AC0000F900FBECF911F910F91FF90EF9008954F
:101AD000EF92FF920F931F93CF93DF93FC01362F6A
:101AE000892B09F44CC0238D222309F44AC0022F0C
:101AF00010E0448DE42EF12C8FEF9FEFB8010E948F
:101B00008D216E157F0508F43EC0EF010FB6F894E5
:101B10000F9260817181CB01249F800D911D112452
:101B200095838483128E73836283015011090E9D05
:101B3000C0010F9D900D1E9D900D1124860F971FC3
:101B4000978386838FEF858F868F31110CC08085B8
:101B5000882389F0CF0108960E94421B882359F000
:101B60000E947B0908C0CF0108960E94220CCE017A
:101B700041960E94220C0F900FBE81E005C080E0CC
:101B800003C080E001C080E0DF91CF911F910F91F1
:101B9000FF90EF9008950F931F93CF93DF93282F1B
:101BA000362F882361F1682F70E08FEF9FEF0E943E
:101BB0008D21832F90E06817790720F1239FC001C2
:101BC0001124813E4FEF940700F5D32FC22F4F967B
:101BD0000E94D90B8C010097D1F0D11104C0FC01F7
:101BE0009183808304C04F96F80191838083F8012C
:101BF000C38FD48F61E0C8010E94680D08C000E067
:101C000010E005C000E010E002C000E010E0C801F4
:101C1000DF91CF911F910F9108959F92AF92BF9244
:101C2000CF92DF92EF92FF920F931F93CF93DF93A8
:101C300000D000D01F92CDB7DEB78C016B015D8361
:101C40004C83A22EB12C992493947C0188E0E80E59
:101C5000F11C0FB6F8940F92F801928D838D9817AE
:101C600018F0F2E0AF1219C04A2DB601C8010E9467
:101C7000B80CF8019189992349F0C80141960E9456
:101C8000421B882331F00E947B0903C081110E940E
:101C90007B090F900FBE81E050C08C819D81892B04
:101CA00021F40F900FBE80E048C0B11005C0CE01F6
:101CB00001960E94B71CB92C0F900FBE0E94EC1722
:101CC0000FB6F8940F92F801858D8F3F09F4158EA9
:101CD000F801868D8F3F09F4168E0F900FBEBE015E
:101CE0006C5F7F4FCE0101960E94C21C81111FC004
:101CF0000FB6F8940F92F801928D0F900FBE838D5E
:101D000098130FC06C817D81C7010E94EA1AC80137
:101D10000E941B0D0E942B1981119BCF0E947B09F1
:101D200098CFC8010E941B0D0E942B1992CFC801A9
:101D30000E941B0D0E942B1980E00F900F900F90B6
:101D40000F900F90DF91CF911F910F91FF90EF9027
:101D5000DF90CF90BF90AF909F900895EF92FF9249
:101D60000F931F93CF93DF938A01FC01528D338D24
:101D7000531710F0223021F5422F7801EC011E8D0F
:101D80008A8DCE010E94B80C1F3F81F48989882377
:101D9000C9F0CE0141960E94421B8823A9F0E114AC
:101DA000F104A1F081E0F701808313C00E940118C3
:101DB000181770F4FF24F394F10EFE8E81E009C031
:101DC00080E007C081E005C081E003C081E001C080
:101DD00081E0DF91CF911F910F91FF90EF900895D7
:101DE000EF92FF921F93CF93DF93FC01228D338DEF
:101DF0002317F8F47B01EC01168D2F5F228F1F3F14
:101E000081F481898823B9F0CF0141960E94421B59
:101E1000882399F0E114F10491F081E0F7018083C7
:101E200011C00E940118181760F41F5F1E8F81E017
:101E300009C080E007C081E005C081E003C081E007
:101E400001C081E0DF91CF911F91FF90EF90089545
:101E50009F92AF92BF92CF92DF92EF92FF920F9339
:101E60001F93CF93DF9300D000D01F92CDB7DEB782
:101E70008C015B015D834C83E12C992493946C016C
:101E800081E1C80ED11C0FB6F8940F92F801F28CC4
:101E9000FF20A9F0B501C8010E94010DFA94F801D4
:101EA000F28E8085882339F0C80108960E94421B73
:101EB00081110E947B090F900FBE81E051C08C817F
:101EC0009D81892B21F40F900FBE80E049C0E11065
:101ED00005C0CE0101960E94B71CE92C0F900FBEE1
:101EE0000E94EC170FB6F8940F92F801858D8F3F82
:101EF00009F4158EF801868D8F3F09F4168E0F9028
:101F00000FBEBE016C5F7F4FCE0101960E94C21CC6
:101F100081111AC0C8010E94AD0C882379F06C8130
:101F20007D81C6010E94EA1AC8010E941B0D0E9411
:101F30002B198111A8CF0E947B09A5CFC8010E944F
:101F40001B0D0E942B199FCFC8010E941B0D0E94E0
:101F50002B19C8010E94AD0C882309F494CF80E0AE
:101F60000F900F900F900F900F90DF91CF911F91D6
:101F70000F91FF90EF90DF90CF90BF90AF909F9028
:101F80000895CF92DF92EF92FF920F931F93CF931A
:101F9000DF9300D000D01F92CDB7DEB78C017D83D8
:101FA0006C83D12CCC24C3947C0181E1E80EF11C1C
:101FB0000FB6F8940F92F801828D882381F081503A
:101FC000828F8085882339F0C80108960E94421BC1
:101FD00081110E947B090F900FBE81E051C08C815E
:101FE0009D81892B21F40F900FBE80E049C0D11054
:101FF00005C0CE0101960E94B71CDC2C0F900FBECD
:102000000E94EC170FB6F8940F92F801858D8F3F60
:1020100009F4158EF801868D8F3F09F4168E0F9006
:102020000FBEBE016C5F7F4FCE0101960E94C21CA5
:1020300081111AC0C8010E94AD0C882379F06C810F
:102040007D81C7010E94EA1AC8010E941B0D0E94EF
:102050002B198111ADCF0E947B09AACFC8010E9424
:102060001B0D0E942B19A4CFC8010E941B0D0E94BA
:102070002B19C8010E94AD0C882309F499CF80E088
:102080000F900F900F900F900F90DF91CF911F91B5
:102090000F91FF90EF90DF90CF900895AF92BF9295
:1020A000CF92DF92EF92FF920F931F93CF93DF9324
:1020B00000D000D01F92CDB7DEB78C016B015D83DD
:1020C0004C83B12CAA24A3947C0181E1E80EF11C7D
:1020D0000FB6F8940F92F801828D8823B9F0E6804C
:1020E000F780B601C8010E94010DF801F782E6826F
:1020F0008189882339F0C80141960E94421B8111D1
:102100000E947B090F900FBE81E051C08C819D81A0
:10211000892B21F40F900FBE80E049C0B11005C09B
:10212000CE0101960E94B71CBA2C0F900FBE0E94E0
:10213000EC170FB6F8940F92F801858D8F3F09F4D4
:10214000158EF801868D8F3F09F4168E0F900FBE05
:10215000BE016C5F7F4FCE0101960E94C21C8111AF
:102160001AC0C8010E94AD0C882379F06C817D8172
:10217000C7010E94EA1AC8010E941B0D0E942B1978
:102180008111A6CF0E947B09A3CFC8010E941B0D1D
:102190000E942B199DCFC8010E941B0D0E942B1974
:1021A000C8010E94AD0C882309F492CF80E00F9003
:1021B0000F900F900F900F90DF91CF911F910F9183
:1021C000FF90EF90DF90CF90BF90AF900895EF9287
:1021D000FF920F931F93CF93DF93FC01C28DCC230B
:1021E00019F17A018C01D58D0E94010DC150F801C1
:1021F000C28FDF3F81F480858823C1F0C801089633
:102200000E94421B8823A1F0E114F10499F081E0BF
:10221000F701808312C00E940118D81768F4DF5FAD
:10222000F801D58F81E009C080E007C081E005C0DA
:1022300081E003C081E001C081E0DF91CF911F9177
:102240000F91FF90EF9008950F931F93CF93DF931B
:10225000FC01228D222349F0EC01068117810E94A6
:10226000010D1F830E8381E001C080E0DF91CF91DB
:102270001F910F9108950FB6F8940F92FC01828D73
:102280000F900FBE08950FB6F8940F92FC01228DA7
:102290000F900FBE838D821B0895FC01828D0895DF
:1022A0000E94130C0895FC01928D81E0911180E051
:1022B0000895FC01928D81E0238D291380E008951B
:1022C000FC014481558122813381240F351F808197
:1022D0009181B901681B790BCB016417750710F068
:1022E000841B950B0895AF92BF92CF92DF92EF922D
:1022F000FF920F931F93CF93DF937C015B01EA0161
:102300006901FC0104811581021B130B4017510761
:1023100008F48A01F70184859585A801B5018C0D23
:102320009D1D0E9473220C171D0758F4AE01401B1F
:10233000510BB501600F711FF701848595850E94CF
:102340007322C6018C0F9D1FF701248135818217EE
:10235000930710F0821B930BDF91CF911F910F9188
:10236000FF90EF90DF90CF90BF90AF900895AF9225
:10237000BF92CF92DF92EF92FF920F931F93CF9372
:10238000DF9300D0CDB7DEB76C015B017A01FC01B1
:1023900042815381968590FF10C0FA82E98220170E
:1023A0003107E0F09A0142E050E0BE016F5F7F4FDD
:1023B000C6010E947311AC0104C02E153F0508F43C
:1023C0007901E114F10461F09A01A701B501C60198
:1023D0000E947311F6019383828302C0E12CF12CD9
:1023E000C7010F900F90DF91CF911F910F91FF9038
:1023F000EF90DF90CF90BF90AF900895AF92BF92D3
:10240000CF92DF92EF92FF920F931F93CF93DF93C0
:102410007C015B01EA016901FC0104811581021B59
:10242000130B4017510708F48A01F701648575857D
:102430006C0D7D1DA801C5010E9473220C171D079C
:1024400058F4AE01401B510BF70164857585C50139
:10245000800F911F0E947322C6018C0F9D1FF701F0
:10246000248135818217930710F0821B930BDF9133
:10247000CF911F910F91FF90EF90DF90CF90BF9081
:10248000AF900895AF92BF92CF92DF92EF92FF92FA
:102490000F931F93CF93DF9300D0CDB7DEB77C01AE
:1024A0005B016A018901FC0120813181968590FFE1
:1024B00011C042E050E0BE016F5F7F4FC7010E9434
:1024C000FE119C0189819A81C816D90698F00250A4
:1024D00011096C01C016D10608F486010115110519
:1024E00059F0A801B501C7010E94FE11F7019183BF
:1024F000808302C000E010E0C8010F900F90DF91D0
:10250000CF911F910F91FF90EF90DF90CF90BF90F0
:10251000AF900895FF920F931F93CF93DF938B019A
:10252000FF24F394413009F0F12C0115110511F449
:1025300001E010E09C01205F3F4F82179307B8F441
:10254000EC012196C9010E94D90BFC01892B89F06D
:102550008FE0DF011D928A95E9F7CF010F969587ED
:102560008487D583C48317830683F68602C0E0E0A0
:10257000F0E0CF01DF91CF911F910F91FF9008956F
:10258000FC01268521FD03C00E94130C08952FE055
:10259000FC0111922A95E9F708950FB6F8940F926D
:1025A000DC0118962D913C911997232B51F51A9621
:1025B0002D913C911B97232B31F51E962C911E9744
:1025C00016964D915C91179714966D917C91159785
:1025D0001C96ED91FC911D973FE01D923A95E9F70D
:1025E000DC011D96FC93EE931C9715967C936E93DD
:1025F000149717965C934E9316971E962C9381E032
:1026000003C080E001C080E00F900FBE0895611507
:10261000710511F461E070E0FC01248135816217DD
:10262000730720F47783668381E0089580E008953E
:10263000FC0140815181808191816281738120817F
:10264000318142175307A9F724813581A9014150EF
:102650005109840F951F861B970B8217930710F063
:10266000821B930B08950E94601108952F923F9250
:102670004F925F926F927F928F929F92AF92BF9292
:10268000CF92DF92EF92FF920F931F93CF93DF933E
:1026900000D000D01F92CDB7DEB75C011B012A012C
:1026A0003D832C83FC01848195810197268520FF41
:1026B0000AC03A01F2E06F0E711C8615970540F4CE
:1026C0001D821C8243C03A018417950708F43C011F
:1026D0008C819D81892B09F439C0CE0101960E941D
:1026E000A71C0FB6F8940F92C5010E9418134C0155
:1026F0008615970530F560E080E090E00E94392172
:102700000E94F71CF501938782870F900FBECC8043
:10271000DD80E12CF12C00E010E0980140E050E079
:10272000BA0180E00E94941DF50113861286BE0155
:102730006C5F7F4FCE0101960E94C21C882389F2F4
:1027400002C00F900FBE8114910421F4C5010E94B4
:1027500018134C0183019401A201B101C5010E942B
:10276000B7116C01892B09F1C5010E946011F501B7
:102770002681378182179307C0F00E94EC17F5017C
:1027800080859185892B79F080859185E12CF12CCC
:1027900000E010E020E030E0A90160E00E94351E7A
:1027A000F501118610860E942B19C6010F900F901B
:1027B0000F900F900F90DF91CF911F910F91FF908D
:1027C000EF90DF90CF90BF90AF909F908F907F90D1
:1027D0006F905F904F903F902F900895AF92BF926F
:1027E000CF92DF92EF92FF920F931F93CF93DF93DD
:1027F000EC017B015A0169018E8580FF04C08A01CA
:102800000E5F1F4F01C08A01CE010E9418139C0168
:10281000A501B701CE010E94B7115C01892BD1F04F
:10282000CE010E9460112E813F818217930790F0A4
:1028300088859985892B71F088859985E12CF12C03
:1028400000E010E020E030E0A90160E00E943D1FC0
:1028500019861886C501DF91CF911F910F91FF90C6
:10286000EF90DF90CF90BF90AF9008956F927F92DE
:102870008F929F92AF92BF92CF92DF92EF92FF9290
:102880000F931F93CF93DF93EC014B013A01690142
:102890008E8580FD03C0A12CB12C04C06894AA24AD
:1028A000A1F8B12CC114D10451F10FB6F8940F92D4
:1028B000CE010E9460118C01A816B90648F060E0B4
:1028C00080E090E00E9439210E94F71C9987888758
:1028D0000F900FBEA016B106C8F0E12CF12C00E05D
:1028E00010E0980140E050E0BA0180E00E94941DA1
:1028F00019861886CE010E9460118C0104C0CE0199
:102900000E9460118C01A016B10600F59801A30188
:10291000B401CE010E9442125C01892BC9F00E94D1
:10292000EC178A859B85892B71F08A859B85E12C24
:10293000F12C00E010E020E030E0A90160E00E940E
:10294000351E1B861A860E942B1902C0A12CB12CA1
:10295000C501DF91CF911F910F91FF90EF90DF9014
:10296000CF90BF90AF909F908F907F906F90089581
:102970000F931F93CF93DF9300D0CDB7DEB7FC0149
:10298000268520FF13C08C010E946011039788F0F8
:10299000F8012081318142E050E0BE016F5F7F4F3E
:1029A000C8010E94FE1189819A8105C080E090E0F3
:1029B00002C080E090E00F900F90DF91CF911F91C7
:1029C0000F910895AF92BF92CF92DF92EF92FF9254
:1029D0000F931F93CF93DF93EC015B017A016901A1
:1029E0008E8580FD03C000E010E002C002E010E030
:1029F000CE010E94601108171907E0F49C01A7019D
:102A0000B501CE010E9442125C01892BA9F08A8592
:102A10009B85892B89F08A859B85E12CF12C00E030
:102A200010E020E030E0A90160E00E943D1F1B861D
:102A30001A8602C0A12CB12CC501DF91CF911F9144
:102A40000F91FF90EF90DF90CF90BF90AF900895DF
:102A5000FC01408151812281338181E0421753077B
:102A600009F080E00895CF93DF93FC01268520FDD7
:102A700003C0C0E0D0E002C0C2E0D0E00E94181362
:102A800021E0C817D90708F420E0822FDF91CF9109
:102A90000895CF92DF92EF92FF920F931F93CF93FF
:102AA000DF93FC0120853185232B91F06B01EC0134
:102AB00080859185E12CF12C00E010E020E030E0F1
:102AC000A90160E00E943D1F1986188681E001C0BF
:102AD00080E0DF91CF911F910F91FF90EF90DF90F9
:102AE000CF900895CF92DF92EF92FF920F931F93B2
:102AF000CF93DF93FC0122853385232B91F06B016B
:102B0000EC0182859385E12CF12C00E010E020E0BF
:102B100030E0A90160E00E943D1F1B861A8681E01B
:102B200001C080E0DF91CF911F910F91FF90EF9056
:102B3000DF90CF900895E091BC06F091BD068081B2
:102B4000811107C08FEF9FEF90939C0680939B06A7
:102B50000895E091BC06F091BD060580F681E02D58
:102B60008081918190939C0680939B06089508EA4A
:102B700016E00F2EF0EDEF2EF6E0FF2EF02D8091F7
:102B8000A706882329F10FB6F8940F92D80115965D
:102B9000ED91FC911697C681D781CE0102960E94D5
:102BA000860C8091A60681508093A6068091A70688
:102BB00081508093A7060F900FBE8F89988D0E9439
:102BC000130CCE010E94130C8091A7068111DBCF5C
:102BD000F7018081823098F20E947B09D0CF0F9359
:102BE0001F93CF93DF93EC010091A4061091A506EB
:102BF000809196069091970602960E94860CC00FCF
:102C0000D11FE0919606F0919706D383C283C01737
:102C1000D10768F460919606709197068091BA0684
:102C20009091BB066E5F7F4F0E94550C17C060915C
:102C30009606709197068091BC069091BD066E5FD6
:102C40007F4F0E94550C80919B0690919C06C8175F
:102C5000D90720F4D0939C06C0939B06DF91CF91B7
:102C60001F910F9108954F925F926F927F928F9272
:102C70009F92AF92BF92CF92DF92EF92FF920F930B
:102C8000CF93DF934C016B015A012901CA010E94C5
:102C9000D90B3C01892B09F400C186E290E00E9427
:102CA000D90BEC01892B81F086E2DE011D928A9519
:102CB000E9F7788E6F8AB1E0AB1AB108A60CB71CA1
:102CC000C114D10429F41EC0C3010E94130CE5C035
:102CD000F6018081898F8081882399F0AE01465E5C
:102CE0005F4F319688E0C80ED11CCF012191DA01E7
:102CF0002D93AD01DC018C91882319F0EC15FD05B5
:102D0000A1F718A2043008F003E00E8B6E01B2E0C8
:102D1000CB0ED11CC6010E94300CCE010C960E9435
:102D2000300CD987C88784E090E0801B91099D878B
:102D30008C87DB8BCA8BA201B401C5010E94D90824
:102D400099838883E114F10419F0F701D183C083DA
:102D50000FB6F8940F928091A6068F5F8093A60617
:102D60008091960690919706892BA9F5D0939706A6
:102D7000C09396068091A6068130E9F580ED96E035
:102D80000E94220C89ED96E00E94220C82EE96E0D1
:102D90000E94220C8BEE96E00E94220C87EC96E0BB
:102DA0000E94220C8EEB96E00E94220C81EB96E0B2
:102DB0000E94220C88EA96E00E94220C87EC96E0A2
:102DC0009093BD068093BC068EEB96E09093BB0675
:102DD0008093BA0610C08091A20681110CC0E091C8
:102DE0009606F091970696898E89891720F0D093E0
:102DF0009706C093960680919D068F5F80939D06EF
:102E00008E899091A306981710F48093A30690E002
:102E1000FC01EE0FFF1FEE0FFF1FEE0FFF1F8E0FC7
:102E20009F1FFC01E053F94F0180F281E02DFD83EB
:102E3000EC83848195819F838E83A481B5811396D1
:102E4000DC92CE921297D582C482EE89F0E0CF0157
:102E5000880F991F880F991F880F991FE80FF91F76
:102E6000E053F94FFB87EA8780818F5F80830F9063
:102E70000FBE8091A206882361F0E0919606F09142
:102E8000970696898E89981730F40E947B0981E015
:102E900005C081E003C081E001C08FEFDF91CF91D9
:102EA0000F91FF90EF90DF90CF90BF90AF909F90E9
:102EB0008F907F906F905F904F9008950F931F9326
:102EC000CF93DF93EC010FB6F8940F92892B21F486
:102ED000C0919606D09197068E010E5F1F4FC801D4
:102EE0000E94860C8C899D89892B21F0CE010C963D
:102EF0000E94860C80919D068F5F80939D06809135
:102F0000960690919706C817D90759F4B80188EA30
:102F100096E00E94340C8091A7068F5F8093A706ED
:102F200007C08091A60681508093A6060E949B153B
:102F30000F900FBE8091960690919706C817D907FB
:102F400039F08F89988D0E94130CCE010E94130CCA
:102F50008091A206882349F0809196069091970669
:102F6000C817D90711F40E947B09DF91CF911F91F7
:102F70000F910895EF92FF920F930F2EF9E9EF2E24
:102F8000F6E0FF2EF02D00E020E030E045E550E0D7
:102F90006AEA70E087EB95E10E943316813081F494
:102FA000F8948FEF9FEF90939C0680939B0681E0AF
:102FB0008093A2061092A5061092A4060E944509CD
:102FC000809188000F91FF90EF900895F8941092EF
:102FD000A2060E947A090895809198068F5F8093D7
:102FE000980608950FB6F8940F928091A4069091D8
:102FF000A5060F900FBE08958091A4069091A50696
:1030000008958091A6060895009721F48091960670
:103010009091970649960895EF92FF920F931F9310
:10302000CF93DF9380919806811104C1C091A406CB
:10303000D091A5067E018FEFE81AF80AF092A50656
:10304000E092A406E114F104B9F48091BC069091D9
:10305000BD062091BA063091BB063093BD06209381
:10306000BC069093BB068093BA0680919E068F5F44
:1030700080939E060E949B1580919B0690919C06D2
:10308000E816F90610F480E0B9C080E061E0E09154
:10309000BC06F091BD069081911107C02FEF3FEF64
:1030A00030939C0620939B06A9C0E091BC06F0914A
:1030B000BD060580F681E02D0680F781E02D228196
:1030C0003381E216F30628F430939C0620939B0686
:1030D00095C0A285B3852481358146815781E90158
:1030E0005D834C832681378144815581E9015B836F
:1030F0004A83AF014E5F5F4F11962D913C9112971D
:103100002417350731F42681378112963C932E938C
:103110001197138612869C9191509C93A489B5892E
:10312000109719F12685378500891189E9011D83DA
:103130000C832089318906851785E9011B830A8361
:1031400011960D911C9112979F01245F3F4F02171A
:10315000130731F42089318912963C932E931197ED
:10316000158A148A9C9191509C9326899091A3066C
:10317000921710F42093A30630E0D901AA0FBB1FC9
:10318000AA0FBB1FAA0FBB1F2A0F3B1FD901A053B9
:10319000B94F11960D90BC91A02DB583A4831496C0
:1031A0002D913C9115973783268314962D913C9150
:1031B0001597E9015B834A8315965C934E931497A8
:1031C000A689B0E09D01220F331F220F331F220F6B
:1031D000331FA20FB31FA053B94FB387A2879C918F
:1031E0009F5F9C93A0919606B0919706268956966C
:1031F0009C91921708F04BCF862F49CFE09196060D
:10320000F0919706268930E0F901EE0FFF1FEE0FCF
:10321000FF1FEE0FFF1F2E0F3F1FF901E053F94F65
:103220009081923008F081E090919F06992361F09F
:1032300081E00AC08091A0069091A106019690932A
:10324000A1068093A00680E0DF91CF911F910F919E
:10325000FF90EF9008951F93CF93DF930FB6F894EC
:103260000F928091980681508093980680919806DD
:103270008111C6C08091A60681119BC0C4C0DB012C
:103280001596ED91FC9116970680F781E02DA489A3
:10329000B5898685978520893189EC013D832C830A
:1032A0008089918926853785EC013B832A83CF016C
:1032B0000C9611962D913C9112972817390731F4ED
:1032C0008089918912969C938E931197158A148AFE
:1032D0008C9181508C93A285B385848195812681C0
:1032E0003781EC013D832C83868197812481358150
:1032F000EC013B832A839F012E5F3F4F11968D91F6
:103300009C9112978217930731F4868197811296C8
:103310009C938E931197138612868C9181508C9377
:1033200086899091A306981710F48093A30690E0E5
:10333000DC01AA0FBB1FAA0FBB1FAA0FBB1F8A0F5E
:103340009B1FDC01A053B94F11960D90BC91A02D8D
:10335000B583A48314968D919C911597978386834A
:1033600014968D919C911597EC013B832A831596B9
:103370003C932E931497A689B0E0CD01880F991F36
:10338000880F991F880F991FA80FB91FA053B94F15
:10339000B387A2878C918F5F8C93A0919606B09192
:1033A0009706968956968C91891740F440939F060C
:1033B00005C0E0E0F0E061EB76E041E0DB018C91FC
:1033C00081115DCFEF2B11F00E949B15C091A006DB
:1033D000D091A106209761F011E00E940C18811194
:1033E00010939F062197C9F71092A1061092A0068C
:1033F00080919F06882331F00E947B0981E003C001
:1034000080E001C080E00F900FBEDF91CF911F914F
:1034100008950F931F93CF93DF938C01EB010E94CC
:10342000EC174091A4065091A506F8012081318146
:10343000C9018C0F9D1F4217530778F48217930719
:1034400020F5C1E04817590708F0C0E0F801918362
:1034500080834817590768F407C08217930780F0E4
:103460004817590768F011C060E0841B950B0E9453
:10347000EF150E942B1981110DC00E947B090AC013
:10348000F80191838083C1E0EFCFF80191838083BD
:10349000C0E0EFCF8C2FDF91CF911F910F91089556
:1034A000CF93DF93EC01892B51F00E94EC1760E081
:1034B000CE010E94EF150E942B19811102C00E94BB
:1034C0007B09DF91CF910895CF93DF93EC010E94A8
:1034D000EC170FB6F8940F928091A0069091A10678
:1034E000C80FD91FD093A106C093A0060F900FBE9E
:1034F0000E942B19DF91CF9108958091980688231F
:1035000021F081E080939F06089510929F062091FC
:10351000A306822F90E0FC01EE0FFF1FEE0FFF1FAE
:10352000EE0FFF1FE80FF91FE053F94F3081311103
:1035300011C02150822F90E0FC01EE0FFF1FEE0F13
:10354000FF1FEE0FFF1FE80FF91FE053F94F308107
:10355000332379F3AC01440F551F440F551F440F1B
:10356000551F480F591FFA01E053F94FA181B2814D
:1035700012966D917C911397728361834D52594FCE
:103580006417750779F4FC01EE0FFF1FEE0FFF1FA4
:10359000EE0FFF1FE80FF91FE053F94F45815681E9
:1035A00052834183FC01EE0FFF1FEE0FFF1FEE0F52
:1035B000FF1F8E0F9F1FFC01E053F94F0180F28126
:1035C000E02D8681978190939706809396062093AD
:1035D000A3060895CF93DF93EB0160919606709157
:1035E0009706645F7F4F0E94550C61E0CE010E94F8
:1035F000EF15DF91CF910895CF93DF93FC01A09158
:103600009606B091970670681D967C936E931C97F2
:10361000A181B281C0919606D0919706BF87AE87EF
:10362000C0919606D091970614968D919C9115970E
:10363000998B888B1496CD91DC91159720919606E5
:1036400030919706245F3F4F3B832A832091960653
:1036500030919706245F3F4F15963C932E93149715
:10366000A0919606B09197065596FC93EE935497C9
:1036700090819F5F908361E0CA010E94EF15DF9106
:10368000CF910895CF93DF93DC011596ED91FC91D6
:1036900016970680F781E02DA489B589C685D78560
:1036A000808991899D838C83C089D18986859785FE
:1036B0009B838A839F01245F3F4F11968D919C913C
:1036C00012978217930731F48089918912969C93FF
:1036D0008E931197158A148A8C9181508C938091C6
:1036E0009806811160C0A285B385C481D581868189
:1036F00097819D838C83C681D781848195819B83AB
:103700008A839F012E5F3F4F11968D919C91129756
:103710008217930731F48681978112969C938E933A
:103720001197138612868C9181508C938689909183
:10373000A306981710F48093A30690E0DC01AA0F6B
:10374000BB1FAA0FBB1FAA0FBB1F8A0F9B1FDC0149
:10375000A053B94F11960D90BC91A02DB583A483B1
:1037600014968D919C911597978386831496CD918D
:10377000DC9115973B832A8315963C932E931497DF
:10378000A689B0E0CD01880F991F880F991F880F77
:10379000991FA80FB91FA053B94FB387A2878C9167
:1037A0008F5F8C931CC041EB56E0DA011196CD91EE
:1037B000DC911297D787C6878C819D81918B808BF6
:1037C0008C819D81DC0113963C932E9312973D834F
:1037D0002C83558B448BDA018C918F5F8C93A09155
:1037E0009606B0919706968956968C91891720F483
:1037F00081E080939F0601C080E0DF91CF91089522
:10380000CF93DF93DC01706811967C936E931696CC
:10381000ED91FC91179718964D915C91199712961E
:103820008D919C91139714962D913C911597EC01D5
:103830003D832C8314968D919C91159712962D9112
:103840003C911397EC013B832A83EA0189819A8199
:10385000A817B90731F414968D919C9115979A8306
:10386000898319961C921E921897DA018C918150C7
:103870008C93A285B385C481D581868197819D83F0
:103880008C83C681D781848195819B838A839F01A4
:103890002E5F3F4F11968D919C911297821793073F
:1038A00031F48681978112969C938E93119713869B
:1038B00012868C9181508C9386899091A3069817DB
:1038C00010F48093A30690E0DC01AA0FBB1FAA0F9F
:1038D000BB1FAA0FBB1F8A0F9B1FDC01A053B94F50
:1038E00011960D90BC91A02DB583A48314968D9153
:1038F0009C911597978386831496CD91DC911597AB
:103900003B832A8315963C932E931497A689B0E0A7
:10391000CD01880F991F880F991F880F991FA80F35
:10392000B91FA053B94FB387A2878C918F5F8C9337
:10393000A0919606B0919706968956968C91891714
:1039400018F481E080939F06DF91CF9108950FB620
:10395000F8940F9220919E06FC0120832091A406EA
:103960003091A506328321830F900FBE08952091D8
:103970009E06FC0120832091A4063091A506328387
:10398000218308950FB6F8940F922091A4063091E8
:10399000A506DC0111964D915C911297E0919E066F
:1039A000FC91FE1741F02417350728F0FB01118226
:1039B000108281E015C0241B350BDB014D915C9119
:1039C0002417350748F4FB01421B530B51834083F6
:1039D0000E94B71C80E004C0FB011182108281E0CC
:1039E0000F900FBE089581E080939F060895809107
:1039F0009606909197060895E0919606F0919706A5
:103A000084859585E0919606F0919706A09196069B
:103A1000B091970656964C9124E030E0241B310972
:103A2000358724870895CF92DF92EF92FF921F93FC
:103A3000CF93DF93162F0FB6F8940F92E09196066E
:103A4000F0919706C82FD0E024E0829FE00DF11D91
:103A50001124C1A0D2A0E3A0F4A0CD28CE28CF2865
:103A600089F4E0919606F0919706EC0FFD1F81E036
:103A700085A34115510531F061E0CA010E94EF159F
:103A80000E947B090F900FBE0FB6F8940F92E09141
:103A90009606F0919706CE01880F991F880F991FFF
:103AA000E80FF91F61A172A183A194A161157105AD
:103AB0008105910541F1112381F0E0919606F09185
:103AC00097069E01220F331F220F331FE20FF31FB1
:103AD00011A212A213A214A216C0E0919606F091B0
:103AE00097069E01220F331F220F331FE20FF31F91
:103AF0006B017C0121E0C21AD108E108F108C1A2E2
:103B0000D2A2E3A2F4A22091960630919706C20FAA
:103B1000D31F1DA20F900FBEDF91CF911F91FF9079
:103B2000EF90DF90CF9008958F929F92AF92BF92C7
:103B3000CF92DF92EF92FF920F931F93CF93DF9379
:103B4000480159010FB6F8940F92E0919606F09152
:103B50009706C82FD0E0EC0FFD1F85A1823061F1E0
:103B6000E0919606F0919706CE01880F991F880F75
:103B7000991FE80FF91F81A192A1A3A1B4A14095BB
:103B8000509560957095482359236A237B2341A360
:103B900052A363A374A3E0919606F0919706EC0FED
:103BA000FD1F81E085A3C114D10431F061E0C6019D
:103BB0000E94EF150E947B090F900FBE0FB6F8947C
:103BC0000F92E114F104A1F0E0919606F0919706AE
:103BD000CE01880F991F880F991FE80FF91F81A147
:103BE00092A1A3A1B4A1F70180839183A283B3839F
:103BF000E0919606F0919706EC0FFD1F85A18230AB
:103C0000E9F4E0919606F0919706CE01880F991F8E
:103C1000880F991FE80FF91F81A192A1A3A1B4A158
:103C200080949094A094B09488229922AA22BB22D6
:103C300081A292A2A3A2B4A281E001C080E020915F
:103C4000960630919706C20FD31F1DA20F900FBE8C
:103C5000DF91CF911F910F91FF90EF90DF90CF9068
:103C6000BF90AF909F908F9008958F929F92AF9248
:103C7000BF92EF92FF920F931F93CF93DF93DC01DC
:103C80000FB6F8940F92E114F10479F0FC0184E08E
:103C9000689FE00DF11D112481A092A0A3A0B4A003
:103CA000F70180829182A282B38270E0FD01E60F6B
:103CB000F71F85A192E095A30230110511F120F4C0
:103CC0000130110541F04BC00330110571F1043092
:103CD0001105B9F144C0660F771F660F771FFD010C
:103CE000E60FF71F81A092A0A3A0B4A0BA01A9017A
:103CF000482959296A297B2941A352A363A374A3A4
:103D00002EC0660F771F660F771FFD01E60FF71FA6
:103D100041A152A163A174A14F5F5F4F6F4F7F4FCD
:103D200041A352A363A374A31AC0660F771F660F43
:103D3000771FFD01E60FF71F21A332A343A354A36E
:103D40000EC0823009F487C0660F771F660F771F99
:103D5000FD01E60FF71F21A332A343A354A3813033
:103D600009F07BC01A96ED91FC911B971496CD91AA
:103D7000DC91159716968D919C9117979D838C8356
:103D80001696CD91DC91179714968D919C9115976D
:103D90009B838A839D012E5F3F4F81819281821791
:103DA000930731F416968D919C9117979283818396
:103DB0001B961C921E921A97808181508083569682
:103DC0008C9156979091A306981710F48093A306B0
:103DD00090E0FC01EE0FFF1FEE0FFF1FEE0FFF1F25
:103DE0008E0F9F1FFC01E053F94F0180F281E02DFF
:103DF0001596FC93EE9314978481958117969C9366
:103E00008E931697C481D5813B832A83358324837F
:103E10005696EC915697F0E0CF01880F991F880FC6
:103E2000991F880F991FE80FF91FE053F94F1B9650
:103E3000FC93EE931A9780818F5F8083E0919606C2
:103E4000F091970656969C918689891740F40E94B6
:103E50007B0981E005C080E003C081E001C081E012
:103E60000F900FBEDF91CF911F910F91FF90EF90B8
:103E7000BF90AF909F908F9008958F929F92AF9236
:103E8000BF92CF92DF92EF92FF920F931F93CF9347
:103E9000DF93DC01E114F10479F0FC0184E0689F18
:103EA000E00DF11D112481A092A0A3A0B4A0F70100
:103EB00080829182A282B38270E0FD01E60FF71F3B
:103EC00085A192E095A30230110511F120F4013093
:103ED000110541F04BC00330110571F1043011059B
:103EE000B9F144C0660F771F660F771FFD01E60F1B
:103EF000F71F81A092A0A3A0B4A0BA01A9014829EC
:103F000059296A297B2941A352A363A374A32EC014
:103F1000660F771F660F771FFD01E60FF71F41A1A0
:103F200052A163A174A14F5F5F4F6F4F7F4F41A3B9
:103F300052A363A374A31AC0660F771F660F771F7F
:103F4000FD01E60FF71F21A332A343A354A30EC024
:103F5000823009F4B2C0660F771F660F771FFD012C
:103F6000E60FF71F21A332A343A354A3813009F026
:103F7000A6C08091980681116DC01A96ED91FC91B2
:103F80001B971496CD91DC91159716968D919C9167
:103F900017979D838C831696CD91DC911797149675
:103FA0008D919C9115979B838A839D012E5F3F4F36
:103FB000818192818217930731F416968D919C919D
:103FC0001797928381831B961C921E921A97808169
:103FD0008150808356968C9156979091A30698179E
:103FE00010F48093A30690E0FC01EE0FFF1FEE0F8C
:103FF000FF1FEE0FFF1F8E0F9F1FFC01E053F94FB5
:104000000180F281E02D1596FC93EE931497848144
:10401000958117969C938E931697C481D5813B8387
:104020002A83358324835696EC915697F0E0CF018E
:10403000880F991F880F991F880F991FE80FF91F84
:10404000E053F94F1B96FC93EE931A9780818F5F94
:10405000808320C041EB56E0FA01C181D2811F96D6
:10406000DC93CE931E978C819D8151969C938E9369
:1040700050972C813D81CD010C96F9019383828369
:104080009D838C8355965C934E935497FA0180815F
:104090008F5F8083E0919606F091970656969C91EB
:1040A0008689891770F4C114D10419F081E0F601F2
:1040B000808381E080939F0605C080E003C081E09B
:1040C00001C081E0DF91CF911F910F91FF90EF90A0
:1040D000DF90CF90BF90AF909F908F9008950F93F7
:1040E0001F93CF93DF93DC01E62FF0E0EC01CE0FBE
:1040F000DF1F8DA192E09DA3EE0FFF1FEE0FFF1FAC
:10410000EA0FFB1F01A112A123A134A10F5F1F4FD2
:104110002F4F3F4F01A312A323A334A3813009F0F3
:10412000A3C08091980681116DC01A96ED91FC9103
:104130001B971496CD91DC91159716968D919C91B5
:1041400017979D838C831696CD91DC9117971496C3
:104150008D919C9115979B838A839D012E5F3F4F84
:10416000818192818217930731F416968D919C91EB
:104170001797928381831B961C921E921A978081B7
:104180008150808356968C9156979091A3069817EC
:1041900010F48093A30690E0FC01EE0FFF1FEE0FDA
:1041A000FF1FEE0FFF1F8E0F9F1FFC01E053F94F03
:1041B0000180F281E02D1596FC93EE931497848193
:1041C000958117969C938E931697C481D5813B83D6
:1041D0002A83358324835696EC915697F0E0CF01DD
:1041E000880F991F880F991F880F991FE80FF91FD3
:1041F000E053F94F1B96FC93EE931A9780818F5FE3
:10420000808320C061EB76E0FB01C181D2811F96E3
:10421000DC93CE931E978C819D8151969C938E93B7
:1042200050972C813D81CD010C96F90193838283B7
:104230009D838C8355967C936E935497FB0180816C
:104240008F5F8083E0919606F091970656969C9139
:104250008689891748F44115510519F081E0FA0162
:10426000808381E080939F06DF91CF911F910F9112
:104270000895009721F480919606909197060FB6C5
:10428000F8940F9270E0FC01E60FF71F25A1223091
:1042900031F4FC01E60FF71F15A281E001C080E0B8
:1042A0000F900FBE0895CF92DF92EF92FF920F937F
:1042B0001F93009721F480919606909197060FB670
:1042C000F8940F92FC0174E0679FE00DF11D11243A
:1042D00061A172A183A194A1C1A0D2A0E3A0F4A086
:1042E00089019A0100951095209530950C211D218A
:1042F0002E213F2101A312A323A334A30F900FBEAD
:104300001F910F91FF90EF90DF90CF9008958FB79E
:104310008F778FBF0E94FD060895AA1BBB1B51E13A
:1043200007C0AA1FBB1FA617B70710F0A61BB70B25
:10433000881F991F5A95A9F780959095BC01CD01CA
:10434000089597FB072E16F4009407D077FD09D047
:104350000E948D2107FC05D03EF4909581959F4FDA
:104360000895709561957F4F0895A1E21A2EAA1BBA
:10437000BB1BFD010DC0AA1FBB1FEE1FFF1FA21715
:10438000B307E407F50720F0A21BB30BE40BF50B12
:10439000661F771F881F991F1A9469F7609570959B
:1043A000809590959B01AC01BD01CF010895A29F1E
:1043B000B001B39FC001A39F700D811D1124911DF9
:1043C000B29F700D811D1124911D0895689401C044
:1043D000E8948F929F92CF93DF930E94F421DF9114
:1043E000CF919F908F90089588249924F401E4013F
:1043F000B0E49F93AA279A158B049C04ED05FE0553
:10440000CF05D007A10798F4AD2FDC2FCF2FFE2FBB
:10441000E92D982C892E982F872F762F652F542FD2
:10442000432F322F2227B85031F7BF9127C01B2EC0
:10443000BF91BB27220F331F441F551F661F771FD5
:10444000881F991F881C991CEE1FFF1FCC1FDD1FA2
:10445000AA1FBB1F8A149B04EC05FD05CE05DF05D2
:10446000A007B10748F08A189B08EC09FD09CE099E
:10447000DF09A00BB10B21601A94E1F62EF4940130
:10448000AF01BE01CD01000C08950F93083090F0EC
:10449000982F872F762F652F542F432F322F2227C7
:1044A0000850F4CF220F331F441F551F661F771F7C
:1044B000881F991F0A95B2F70F9108952A0D3B1D89
:1044C0004C1D5D1D6E1D7F1D801F911F08950024D2
:1044D000A7FD00942A1730054005500560057005BA
:1044E000800590050895FB01DC0102C001900D924A
:0C44F00041505040D8F70895F894FFCFD9
:1044FC000000010107000000000000001F0A0E0070
:10450C0000040A011F00000007041F000404040437
:10451C000000000000000000033F065B4F666D7D4D
:10452C00077F6F4F4E004F46460046616E20697301
:10453C00200054656D70203D200049444C4500001E
:00000001FF
